{
  "_format": "hh-sol-artifact-1",
  "contractName": "ProjectFactory",
  "sourceName": "contracts/ProjectFactory.sol",
  "abi": [
    {
      "inputs": [],
      "stateMutability": "nonpayable",
      "type": "constructor"
    },
    {
      "anonymous": false,
      "inputs": [
        {
          "indexed": true,
          "internalType": "uint256",
          "name": "projectId",
          "type": "uint256"
        },
        {
          "indexed": true,
          "internalType": "address",
          "name": "recipient",
          "type": "address"
        },
        {
          "indexed": false,
          "internalType": "uint256",
          "name": "amount",
          "type": "uint256"
        },
        {
          "indexed": false,
          "internalType": "uint256",
          "name": "platformFee",
          "type": "uint256"
        }
      ],
      "name": "FundsReleased",
      "type": "event"
    },
    {
      "anonymous": false,
      "inputs": [
        {
          "indexed": true,
          "internalType": "uint256",
          "name": "projectId",
          "type": "uint256"
        },
        {
          "indexed": false,
          "internalType": "address",
          "name": "completedBy",
          "type": "address"
        },
        {
          "indexed": false,
          "internalType": "uint256",
          "name": "completedAt",
          "type": "uint256"
        }
      ],
      "name": "ProjectCompleted",
      "type": "event"
    },
    {
      "anonymous": false,
      "inputs": [
        {
          "indexed": true,
          "internalType": "uint256",
          "name": "projectId",
          "type": "uint256"
        },
        {
          "indexed": true,
          "internalType": "address",
          "name": "owner",
          "type": "address"
        },
        {
          "indexed": false,
          "internalType": "string",
          "name": "title",
          "type": "string"
        },
        {
          "indexed": false,
          "internalType": "uint256",
          "name": "fundingGoal",
          "type": "uint256"
        }
      ],
      "name": "ProjectCreated",
      "type": "event"
    },
    {
      "anonymous": false,
      "inputs": [
        {
          "indexed": true,
          "internalType": "uint256",
          "name": "projectId",
          "type": "uint256"
        },
        {
          "indexed": true,
          "internalType": "address",
          "name": "funder",
          "type": "address"
        },
        {
          "indexed": false,
          "internalType": "uint256",
          "name": "amount",
          "type": "uint256"
        },
        {
          "indexed": false,
          "internalType": "uint256",
          "name": "newTotal",
          "type": "uint256"
        }
      ],
      "name": "ProjectFunded",
      "type": "event"
    },
    {
      "anonymous": false,
      "inputs": [
        {
          "indexed": true,
          "internalType": "uint256",
          "name": "projectId",
          "type": "uint256"
        },
        {
          "indexed": true,
          "internalType": "address",
          "name": "contributor",
          "type": "address"
        },
        {
          "indexed": false,
          "internalType": "uint256",
          "name": "amount",
          "type": "uint256"
        }
      ],
      "name": "RefundIssued",
      "type": "event"
    },
    {
      "inputs": [],
      "name": "MIN_CONTRIBUTION",
      "outputs": [
        {
          "internalType": "uint256",
          "name": "",
          "type": "uint256"
        }
      ],
      "stateMutability": "view",
      "type": "function"
    },
    {
      "inputs": [],
      "name": "MIN_FUNDING_GOAL",
      "outputs": [
        {
          "internalType": "uint256",
          "name": "",
          "type": "uint256"
        }
      ],
      "stateMutability": "view",
      "type": "function"
    },
    {
      "inputs": [],
      "name": "admin",
      "outputs": [
        {
          "internalType": "address",
          "name": "",
          "type": "address"
        }
      ],
      "stateMutability": "view",
      "type": "function"
    },
    {
      "inputs": [
        {
          "internalType": "uint256",
          "name": "projectId",
          "type": "uint256"
        }
      ],
      "name": "contribute",
      "outputs": [],
      "stateMutability": "payable",
      "type": "function"
    },
    {
      "inputs": [
        {
          "internalType": "uint256",
          "name": "",
          "type": "uint256"
        },
        {
          "internalType": "address",
          "name": "",
          "type": "address"
        }
      ],
      "name": "contributorAmounts",
      "outputs": [
        {
          "internalType": "uint256",
          "name": "",
          "type": "uint256"
        }
      ],
      "stateMutability": "view",
      "type": "function"
    },
    {
      "inputs": [
        {
          "internalType": "address",
          "name": "_owner",
          "type": "address"
        },
        {
          "internalType": "string",
          "name": "_title",
          "type": "string"
        },
        {
          "internalType": "string",
          "name": "_description",
          "type": "string"
        },
        {
          "internalType": "uint256",
          "name": "_fundingGoal",
          "type": "uint256"
        },
        {
          "internalType": "string",
          "name": "_category",
          "type": "string"
        },
        {
          "internalType": "string",
          "name": "_location",
          "type": "string"
        },
        {
          "internalType": "uint256",
          "name": "_timeline",
          "type": "uint256"
        }
      ],
      "name": "createProject",
      "outputs": [
        {
          "internalType": "uint256",
          "name": "",
          "type": "uint256"
        }
      ],
      "stateMutability": "nonpayable",
      "type": "function"
    },
    {
      "inputs": [
        {
          "internalType": "uint256",
          "name": "projectId",
          "type": "uint256"
        }
      ],
      "name": "fundProject",
      "outputs": [],
      "stateMutability": "payable",
      "type": "function"
    },
    {
      "inputs": [],
      "name": "getContractBalance",
      "outputs": [
        {
          "internalType": "uint256",
          "name": "",
          "type": "uint256"
        }
      ],
      "stateMutability": "view",
      "type": "function"
    },
    {
      "inputs": [
        {
          "internalType": "uint256",
          "name": "projectId",
          "type": "uint256"
        },
        {
          "internalType": "address",
          "name": "contributor",
          "type": "address"
        }
      ],
      "name": "getContributorAmount",
      "outputs": [
        {
          "internalType": "uint256",
          "name": "",
          "type": "uint256"
        }
      ],
      "stateMutability": "view",
      "type": "function"
    },
    {
      "inputs": [
        {
          "internalType": "uint256",
          "name": "projectId",
          "type": "uint256"
        }
      ],
      "name": "getContributorCount",
      "outputs": [
        {
          "internalType": "uint256",
          "name": "",
          "type": "uint256"
        }
      ],
      "stateMutability": "view",
      "type": "function"
    },
    {
      "inputs": [],
      "name": "getMinimumContribution",
      "outputs": [
        {
          "internalType": "uint256",
          "name": "",
          "type": "uint256"
        }
      ],
      "stateMutability": "pure",
      "type": "function"
    },
    {
      "inputs": [],
      "name": "getMinimumFundingGoal",
      "outputs": [
        {
          "internalType": "uint256",
          "name": "",
          "type": "uint256"
        }
      ],
      "stateMutability": "pure",
      "type": "function"
    },
    {
      "inputs": [
        {
          "internalType": "uint256",
          "name": "projectId",
          "type": "uint256"
        }
      ],
      "name": "getProjectInfo",
      "outputs": [
        {
          "internalType": "address",
          "name": "owner",
          "type": "address"
        },
        {
          "internalType": "uint256",
          "name": "fundingGoal",
          "type": "uint256"
        },
        {
          "internalType": "uint256",
          "name": "totalFunding",
          "type": "uint256"
        },
        {
          "internalType": "bool",
          "name": "isActive",
          "type": "bool"
        },
        {
          "internalType": "bool",
          "name": "isCompleted",
          "type": "bool"
        },
        {
          "internalType": "bool",
          "name": "fundsReleased",
          "type": "bool"
        },
        {
          "internalType": "uint256",
          "name": "fundingDeadline",
          "type": "uint256"
        }
      ],
      "stateMutability": "view",
      "type": "function"
    },
    {
      "inputs": [],
      "name": "getProjectsCount",
      "outputs": [
        {
          "internalType": "uint256",
          "name": "",
          "type": "uint256"
        }
      ],
      "stateMutability": "view",
      "type": "function"
    },
    {
      "inputs": [
        {
          "internalType": "uint256",
          "name": "projectId",
          "type": "uint256"
        },
        {
          "internalType": "address",
          "name": "contributor",
          "type": "address"
        }
      ],
      "name": "hasContributed",
      "outputs": [
        {
          "internalType": "bool",
          "name": "",
          "type": "bool"
        }
      ],
      "stateMutability": "view",
      "type": "function"
    },
    {
      "inputs": [],
      "name": "platformFeePercentage",
      "outputs": [
        {
          "internalType": "uint256",
          "name": "",
          "type": "uint256"
        }
      ],
      "stateMutability": "view",
      "type": "function"
    },
    {
      "inputs": [
        {
          "internalType": "uint256",
          "name": "",
          "type": "uint256"
        },
        {
          "internalType": "uint256",
          "name": "",
          "type": "uint256"
        }
      ],
      "name": "projectContributions",
      "outputs": [
        {
          "internalType": "address",
          "name": "contributor",
          "type": "address"
        },
        {
          "internalType": "uint256",
          "name": "amount",
          "type": "uint256"
        },
        {
          "internalType": "uint256",
          "name": "timestamp",
          "type": "uint256"
        }
      ],
      "stateMutability": "view",
      "type": "function"
    },
    {
      "inputs": [
        {
          "internalType": "uint256",
          "name": "",
          "type": "uint256"
        }
      ],
      "name": "projects",
      "outputs": [
        {
          "internalType": "address payable",
          "name": "owner",
          "type": "address"
        },
        {
          "internalType": "string",
          "name": "title",
          "type": "string"
        },
        {
          "internalType": "string",
          "name": "description",
          "type": "string"
        },
        {
          "internalType": "uint256",
          "name": "fundingGoal",
          "type": "uint256"
        },
        {
          "internalType": "string",
          "name": "category",
          "type": "string"
        },
        {
          "internalType": "string",
          "name": "location",
          "type": "string"
        },
        {
          "internalType": "uint256",
          "name": "timeline",
          "type": "uint256"
        },
        {
          "internalType": "uint256",
          "name": "totalFunding",
          "type": "uint256"
        },
        {
          "internalType": "bool",
          "name": "isActive",
          "type": "bool"
        },
        {
          "internalType": "bool",
          "name": "isCompleted",
          "type": "bool"
        },
        {
          "internalType": "bool",
          "name": "fundsReleased",
          "type": "bool"
        },
        {
          "internalType": "uint256",
          "name": "createdAt",
          "type": "uint256"
        },
        {
          "internalType": "uint256",
          "name": "completedAt",
          "type": "uint256"
        },
        {
          "internalType": "uint256",
          "name": "fundingDeadline",
          "type": "uint256"
        }
      ],
      "stateMutability": "view",
      "type": "function"
    },
    {
      "inputs": [
        {
          "internalType": "uint256",
          "name": "projectId",
          "type": "uint256"
        }
      ],
      "name": "requestRefund",
      "outputs": [],
      "stateMutability": "nonpayable",
      "type": "function"
    },
    {
      "inputs": [
        {
          "internalType": "uint256",
          "name": "projectId",
          "type": "uint256"
        },
        {
          "internalType": "bool",
          "name": "_isActive",
          "type": "bool"
        }
      ],
      "name": "setProjectActive",
      "outputs": [],
      "stateMutability": "nonpayable",
      "type": "function"
    },
    {
      "stateMutability": "payable",
      "type": "receive"
    }
  ],
  "bytecode": "0x60808060405234602b5760028055600180546001600160a01b0319163317905561179990816100318239f35b600080fdfe6080604052600436101561001b575b361561001957600080fd5b005b60003560e01c80630d90873514610724578063107046bd146105f357806319c5f695146105ba5780632f597db51461052d57806336d95f561461043657806340650c91146101b257806361c47cc9146104d75780636c563abe146102595780636f9fb98a146104bb5780638f9b6b411461045957806396d43cc614610436578063a4b2409e146102d8578063b5b96ae01461027d578063c1cbbca714610259578063c45a577a14610211578063cdd78cfc146101f3578063e4a8f18b146101d5578063f84038b1146101b2578063f851a440146101895763fabf59680361000e57346101845760203660031901126101845760e06101276004356101226000548210611199565b611001565b5060018060a01b038154169060ff6003820154916007810154600b6008830154920154936040519586526020860152604085015281811615156060850152818160081c161515608085015260101c16151560a083015260c0820152f35b600080fd5b34610184576000366003190112610184576001546040516001600160a01b039091168152602090f35b3461018457600036600319011261018457602060405167016345785d8a00008152f35b34610184576000366003190112610184576020600054604051908152f35b34610184576000366003190112610184576020600254604051908152f35b346101845760403660031901126101845761022a610f66565b600435600052600460205260406000209060018060a01b03166000526020526020604060002054604051908152f35b6020366003190112610184576100196004356102786000548210611199565b6111d1565b3461018457604036600319011261018457600435610299610f66565b906102a76000548210611199565b600052600660205260406000209060018060a01b0316600052602052602060ff604060002054166040519015158152f35b34610184576020366003190112610184576004356102f96000548210611199565b61030281611001565b5090600b820154421180610424575b156103e85760008181526004602090815260408083203384529091529020549182156103ab57600082815260046020908152604080832033845290915281205560070180546103619084906116ea565b905561037d600080808086335af16103776116f7565b50611727565b6040519182527f7a482fdeb6bc9a1376f597068a214a7a39472bb2eff1b8cad21ba04f49ddca1b60203393a3005b60405162461bcd60e51b8152602060048201526015602482015274139bc818dbdb9d1c9a589d5d1a5bdb88199bdd5b99605a1b6044820152606490fd5b60405162461bcd60e51b8152602060048201526014602482015273526566756e64206e6f7420617661696c61626c6560601b6044820152606490fd5b5060ff600883015460081c1615610311565b34610184576000366003190112610184576020604051674563918244f400008152f35b34610184576040366003190112610184576024356004356000526003602052604060002080548210156101845760609161049291611170565b5060018060a01b0381541690600260018201549101549060405192835260208301526040820152f35b3461018457600036600319011261018457602047604051908152f35b34610184576040366003190112610184576004356104f3610f66565b906105016000548210611199565b600052600460205260406000209060018060a01b03166000526020526020604060002054604051908152f35b34610184576040366003190112610184576004356024358015158103610184576001546001600160a01b03163303610588576008610575610019936101226000548210611199565b50019060ff801983541691151516179055565b60405162461bcd60e51b815260206004820152600a60248201526927b7363c9030b236b4b760b11b6044820152606490fd5b34610184576020366003190112610184576004356105db6000548210611199565b60005260056020526020604060002054604051908152f35b34610184576020366003190112610184576004356000548110156101845761061a90611001565b5080546001600160a01b03166106326001830161108b565b9161063f6002820161108b565b6003820154916106516004820161108b565b9261065e6005830161108b565b93600683015494600784015490600885015492600986015494600a87015496600b0154976040519b8c9b8c5260208c016101c090526101c08c016106a19161112f565b8b810360408d01526106b29161112f565b9060608b015289810360808b01526106c99161112f565b88810360a08a01526106da9161112f565b9560c088015260e087015260ff811615156101008701528060081c60ff16151561012087015260101c60ff1615156101408601526101608501526101808401526101a08301520390f35b346101845760e0366003190112610184576004356001600160a01b03811681036101845760243567ffffffffffffffff811161018457610768903690600401610fba565b9060443567ffffffffffffffff811161018457610789903690600401610fba565b9060843567ffffffffffffffff8111610184576107aa903690600401610fba565b9160a43567ffffffffffffffff8111610184576107cb903690600401610fba565b60c43591906001600160a01b03841615610f3157674563918244f4000060643510610eec578215610eb057600054946201518084028481046201518003610e9a57610816904261118c565b93604051936101c0850185811067ffffffffffffffff821117610c255760405260018060a01b0387168552602085019589875260408601918252606086019260643584526080870194855260a0870195865260c0870152600060e08701526001610100870152600061012087015260006101408701524261016087015260006101808701526101a0860152600160401b881015610c2557600188016000556108bd88611001565b969096610e8457855187546001600160a01b0319166001600160a01b0391909116178755518051600188019167ffffffffffffffff8211610c255781906109048454611051565b601f8111610e31575b50602090601f8311600114610dcc57600092610dc1575b50508160011b916000199060031b1c19161790555b518051600287019167ffffffffffffffff8211610c2557819061095c8454611051565b601f8111610d6e575b50602090601f8311600114610d0957600092610cfe575b50508160011b916000199060031b1c19161790555b516003850155518051600485019167ffffffffffffffff8211610c255781906109ba8454611051565b601f8111610cab575b50602090601f8311600114610c4657600092610c3b575b50508160011b916000199060031b1c19161790555b5180519067ffffffffffffffff8211610c2557610a0f6005850154611051565b601f8111610bda575b5091859391602097938890601f8311600114610b3d577f51d08cb6cfa640a387210fb69df925dfb70169ae7373f8ecd40b977b0c800d9a959383610b149694600b946101a094600092610b32575b50508160011b916000199060031b1c19161760058501555b60c0810151600685015560e0810151600785015560088401610ab36101008301511515829060ff801983541691151516179055565b610120820151815461014084015162ffff001990911691151560081b61ff00169190911790151560101b62ff0000161790556101608101516009850155610180810151600a850155015191015560408051818152928392909183019061112f565b606435828901526001600160a01b03909516940390a3604051908152f35b015190508d80610a66565b9060058501600052806000209160005b601f1985168110610bc0575093600184600b946101a0947f51d08cb6cfa640a387210fb69df925dfb70169ae7373f8ecd40b977b0c800d9a9a98610b149a98601f19811610610ba7575b505050811b016005850155610a7e565b015160001960f88460031b161c191690558d8080610b97565b8183015184558a9850600190930192918b01918b01610b4d565b600585016000526020600020601f840160051c81019160208510610c1b575b601f0160051c01905b818110610c0f5750610a18565b60008155600101610c02565b9091508190610bf9565b634e487b7160e01b600052604160045260246000fd5b0151905089806109da565b60008581528281209350601f198516905b818110610c935750908460019594939210610c7a575b505050811b0190556109ef565b015160001960f88460031b161c19169055898080610c6d565b92936020600181928786015181550195019301610c57565b909150836000526020600020601f840160051c81019160208510610cf4575b90601f859493920160051c01905b818110610ce557506109c3565b60008155849350600101610cd8565b9091508190610cca565b015190508b8061097c565b60008581528281209350601f198516905b818110610d565750908460019594939210610d3d575b505050811b019055610991565b015160001960f88460031b161c191690558b8080610d30565b92936020600181928786015181550195019301610d1a565b909150836000526020600020601f840160051c81019160208510610db7575b90601f859493920160051c01905b818110610da85750610965565b60008155849350600101610d9b565b9091508190610d8d565b015190508c80610924565b60008581528281209350601f198516905b818110610e195750908460019594939210610e00575b505050811b019055610939565b015160001960f88460031b161c191690558c8080610df3565b92936020600181928786015181550195019301610ddd565b909150836000526020600020601f840160051c81019160208510610e7a575b90601f859493920160051c01905b818110610e6b575061090d565b60008155849350600101610e5e565b9091508190610e50565b634e487b7160e01b600052600060045260246000fd5b634e487b7160e01b600052601160045260246000fd5b60405162461bcd60e51b8152602060048201526014602482015273054696d656c696e65206d757374206265203e20360641b6044820152606490fd5b60405162461bcd60e51b815260206004820152601d60248201527f476f616c206d757374206265206174206c656173742035204d415449430000006044820152606490fd5b60405162461bcd60e51b815260206004820152600d60248201526c24b73b30b634b21037bbb732b960991b6044820152606490fd5b602435906001600160a01b038216820361018457565b90601f8019910116810190811067ffffffffffffffff821117610c2557604052565b67ffffffffffffffff8111610c2557601f01601f191660200190565b81601f8201121561018457803590610fd182610f9e565b92610fdf6040519485610f7c565b8284526020838301011161018457816000926020809301838601378301015290565b60005481101561103b576000808052600c919091027f290decd9548b62a8d60345a988386fc84ba6bc95484008f6362f93160ef3e5630191565b634e487b7160e01b600052603260045260246000fd5b90600182811c92168015611081575b602083101461106b57565b634e487b7160e01b600052602260045260246000fd5b91607f1691611060565b906040519182600082549261109f84611051565b808452936001811690811561110d57506001146110c6575b506110c492500383610f7c565b565b90506000929192526020600020906000915b8183106110f15750509060206110c492820101386110b7565b60209193508060019154838589010152019101909184926110d8565b9050602092506110c494915060ff191682840152151560051b820101386110b7565b919082519283825260005b84811061115b575050826000602080949584010152601f8019910116010190565b8060208092840101518282860101520161113a565b805482101561103b576000526003602060002091020190600090565b91908201809211610e9a57565b156111a057565b60405162461bcd60e51b8152602060048201526009602482015268139bdd08199bdd5b9960ba1b6044820152606490fd5b60ff60086111de83611001565b50015416156116b8576111f081611001565b5067016345785d8a00003410611669576008810160ff815460081c1661162457600b82015442116115ed576003820180546007840190611232825480926116ea565b60009134918083116115d2575b508161124a9161118c565b835586600052600360205260406000206040516060810181811067ffffffffffffffff821117610c2557604052338152602081019183835260408201904282528054600160401b811015610c25576112a791600182018155611170565b939093610e8457915183546001600160a01b0319166001600160a01b039190911617835590516001830155516002919091015560008781526004602090815260408083203384529091529020805461130090839061118c565b9055600087815260066020908152604080832033845290915290205460ff1615611564575b82546040519182526020820152867f2c26a9d48bfcf6dc8a28b936f0aa3b166a0119134df865f480007cc6f1a9b19760403393a38061154a575b50549054111561136e57505050565b61010061ffff19825416179055600a42910155807fcd1dbe2ce745820f60f93df9d589ab9aca1c122559087027c76d1eb59ced615b60408051338152426020820152a26113ba81611001565b509060088201805460ff8160101c1661151257620100009062ff00001916179055600782015491600254808402908482041484151715610e9a576064611402910480946116ea565b9060008080808560018060a01b038654165af161141d6116f7565b50156114cd5783611468575b546040805192835260208301949094526001600160a01b0316927f93e901cc5aea20ea9655887d9290a3215a5b3999c024812f4e4b749f7534349c91a3565b60008080808760018060a01b03600154165af16114836116f7565b506114295760405162461bcd60e51b815260206004820152601860248201527f5472616e7366657220746f2061646d696e206661696c656400000000000000006044820152606490fd5b60405162461bcd60e51b815260206004820152601960248201527f5472616e7366657220746f206661726d6572206661696c6564000000000000006044820152606490fd5b60405162461bcd60e51b815260206004820152601060248201526f105b1c9958591e481c995b19585cd95960821b6044820152606490fd5b600080808061155e94335af16103776116f7565b3861135f565b8660005260056020526040600020805490600160401b821015610c25576001820180825582101561103b57600090815260208082209290920180546001600160a01b03191633908117909155898252600683526040808320918352925220805460ff19166001179055611325565b909250905061124a816115e581346116ea565b93915061123f565b60405162461bcd60e51b815260206004820152600f60248201526e111958591b1a5b99481c185cdcd959608a1b6044820152606490fd5b60405162461bcd60e51b815260206004820152601960248201527f50726f6a65637420616c726561647920636f6d706c65746564000000000000006044820152606490fd5b60405162461bcd60e51b815260206004820152602160248201527f4d696e696d756d20636f6e747269627574696f6e20697320302e31204d4154496044820152604360f81b6064820152608490fd5b60405162461bcd60e51b815260206004820152600a6024820152694e6f742061637469766560b01b6044820152606490fd5b91908203918211610e9a57565b3d15611722573d9061170882610f9e565b916117166040519384610f7c565b82523d6000602084013e565b606090565b1561172e57565b60405162461bcd60e51b815260206004820152600d60248201526c1499599d5b990819985a5b1959609a1b6044820152606490fdfea2646970667358221220a711937f4a8db243033a7626dabd32f9f73272ca92b5d901ed3de04767bf79eb64736f6c634300081e0033",
  "linkReferences": {},
  "deployedLinkReferences": {}
}