{"contracts/ProjectFactory.sol":{"ProjectFactory":{"abi":[{"inputs":[],"stateMutability":"nonpayable","type":"constructor"},{"anonymous":false,"inputs":[{"indexed":true,"internalType":"uint256","name":"projectId","type":"uint256"},{"indexed":true,"internalType":"address","name":"recipient","type":"address"},{"indexed":false,"internalType":"uint256","name":"amount","type":"uint256"},{"indexed":false,"internalType":"uint256","name":"platformFee","type":"uint256"}],"name":"FundsReleased","type":"event"},{"anonymous":false,"inputs":[{"indexed":true,"internalType":"uint256","name":"projectId","type":"uint256"},{"indexed":false,"internalType":"address","name":"completedBy","type":"address"},{"indexed":false,"internalType":"uint256","name":"completedAt","type":"uint256"}],"name":"ProjectCompleted","type":"event"},{"anonymous":false,"inputs":[{"indexed":true,"internalType":"uint256","name":"projectId","type":"uint256"},{"indexed":true,"internalType":"address","name":"owner","type":"address"},{"indexed":false,"internalType":"string","name":"title","type":"string"},{"indexed":false,"internalType":"uint256","name":"fundingGoal","type":"uint256"}],"name":"ProjectCreated","type":"event"},{"anonymous":false,"inputs":[{"indexed":true,"internalType":"uint256","name":"projectId","type":"uint256"},{"indexed":true,"internalType":"address","name":"funder","type":"address"},{"indexed":false,"internalType":"uint256","name":"amount","type":"uint256"},{"indexed":false,"internalType":"uint256","name":"newTotal","type":"uint256"}],"name":"ProjectFunded","type":"event"},{"anonymous":false,"inputs":[{"indexed":true,"internalType":"uint256","name":"projectId","type":"uint256"},{"indexed":true,"internalType":"address","name":"contributor","type":"address"},{"indexed":false,"internalType":"uint256","name":"amount","type":"uint256"}],"name":"RefundIssued","type":"event"},{"inputs":[],"name":"MIN_CONTRIBUTION","outputs":[{"internalType":"uint256","name":"","type":"uint256"}],"stateMutability":"view","type":"function"},{"inputs":[],"name":"MIN_FUNDING_GOAL","outputs":[{"internalType":"uint256","name":"","type":"uint256"}],"stateMutability":"view","type":"function"},{"inputs":[],"name":"admin","outputs":[{"internalType":"address","name":"","type":"address"}],"stateMutability":"view","type":"function"},{"inputs":[{"internalType":"uint256","name":"projectId","type":"uint256"}],"name":"contribute","outputs":[],"stateMutability":"payable","type":"function"},{"inputs":[{"internalType":"uint256","name":"","type":"uint256"},{"internalType":"address","name":"","type":"address"}],"name":"contributorAmounts","outputs":[{"internalType":"uint256","name":"","type":"uint256"}],"stateMutability":"view","type":"function"},{"inputs":[{"internalType":"address","name":"_owner","type":"address"},{"internalType":"string","name":"_title","type":"string"},{"internalType":"string","name":"_description","type":"string"},{"internalType":"uint256","name":"_fundingGoal","type":"uint256"},{"internalType":"string","name":"_category","type":"string"},{"internalType":"string","name":"_location","type":"string"},{"internalType":"uint256","name":"_timeline","type":"uint256"}],"name":"createProject","outputs":[{"internalType":"uint256","name":"","type":"uint256"}],"stateMutability":"nonpayable","type":"function"},{"inputs":[{"internalType":"uint256","name":"projectId","type":"uint256"}],"name":"fundProject","outputs":[],"stateMutability":"payable","type":"function"},{"inputs":[],"name":"getContractBalance","outputs":[{"internalType":"uint256","name":"","type":"uint256"}],"stateMutability":"view","type":"function"},{"inputs":[{"internalType":"uint256","name":"projectId","type":"uint256"},{"internalType":"address","name":"contributor","type":"address"}],"name":"getContributorAmount","outputs":[{"internalType":"uint256","name":"","type":"uint256"}],"stateMutability":"view","type":"function"},{"inputs":[{"internalType":"uint256","name":"projectId","type":"uint256"}],"name":"getContributorCount","outputs":[{"internalType":"uint256","name":"","type":"uint256"}],"stateMutability":"view","type":"function"},{"inputs":[],"name":"getMinimumContribution","outputs":[{"internalType":"uint256","name":"","type":"uint256"}],"stateMutability":"pure","type":"function"},{"inputs":[],"name":"getMinimumFundingGoal","outputs":[{"internalType":"uint256","name":"","type":"uint256"}],"stateMutability":"pure","type":"function"},{"inputs":[{"internalType":"uint256","name":"projectId","type":"uint256"}],"name":"getProjectInfo","outputs":[{"internalType":"address","name":"owner","type":"address"},{"internalType":"uint256","name":"fundingGoal","type":"uint256"},{"internalType":"uint256","name":"totalFunding","type":"uint256"},{"internalType":"bool","name":"isActive","type":"bool"},{"internalType":"bool","name":"isCompleted","type":"bool"},{"internalType":"bool","name":"fundsReleased","type":"bool"},{"internalType":"uint256","name":"fundingDeadline","type":"uint256"}],"stateMutability":"view","type":"function"},{"inputs":[],"name":"getProjectsCount","outputs":[{"internalType":"uint256","name":"","type":"uint256"}],"stateMutability":"view","type":"function"},{"inputs":[{"internalType":"uint256","name":"projectId","type":"uint256"},{"internalType":"address","name":"contributor","type":"address"}],"name":"hasContributed","outputs":[{"internalType":"bool","name":"","type":"bool"}],"stateMutability":"view","type":"function"},{"inputs":[],"name":"platformFeePercentage","outputs":[{"internalType":"uint256","name":"","type":"uint256"}],"stateMutability":"view","type":"function"},{"inputs":[{"internalType":"uint256","name":"","type":"uint256"},{"internalType":"uint256","name":"","type":"uint256"}],"name":"projectContributions","outputs":[{"internalType":"address","name":"contributor","type":"address"},{"internalType":"uint256","name":"amount","type":"uint256"},{"internalType":"uint256","name":"timestamp","type":"uint256"}],"stateMutability":"view","type":"function"},{"inputs":[{"internalType":"uint256","name":"","type":"uint256"}],"name":"projects","outputs":[{"internalType":"address payable","name":"owner","type":"address"},{"internalType":"string","name":"title","type":"string"},{"internalType":"string","name":"description","type":"string"},{"internalType":"uint256","name":"fundingGoal","type":"uint256"},{"internalType":"string","name":"category","type":"string"},{"internalType":"string","name":"location","type":"string"},{"internalType":"uint256","name":"timeline","type":"uint256"},{"internalType":"uint256","name":"totalFunding","type":"uint256"},{"internalType":"bool","name":"isActive","type":"bool"},{"internalType":"bool","name":"isCompleted","type":"bool"},{"internalType":"bool","name":"fundsReleased","type":"bool"},{"internalType":"uint256","name":"createdAt","type":"uint256"},{"internalType":"uint256","name":"completedAt","type":"uint256"},{"internalType":"uint256","name":"fundingDeadline","type":"uint256"}],"stateMutability":"view","type":"function"},{"inputs":[{"internalType":"uint256","name":"projectId","type":"uint256"}],"name":"requestRefund","outputs":[],"stateMutability":"nonpayable","type":"function"},{"inputs":[{"internalType":"uint256","name":"projectId","type":"uint256"},{"internalType":"bool","name":"_isActive","type":"bool"}],"name":"setProjectActive","outputs":[],"stateMutability":"nonpayable","type":"function"},{"stateMutability":"payable","type":"receive"}],"evm":{"bytecode":{"linkReferences":{},"object":"60808060405234602b5760028055600180546001600160a01b0319163317905561179990816100318239f35b600080fdfe6080604052600436101561001b575b361561001957600080fd5b005b60003560e01c80630d90873514610724578063107046bd146105f357806319c5f695146105ba5780632f597db51461052d57806336d95f561461043657806340650c91146101b257806361c47cc9146104d75780636c563abe146102595780636f9fb98a146104bb5780638f9b6b411461045957806396d43cc614610436578063a4b2409e146102d8578063b5b96ae01461027d578063c1cbbca714610259578063c45a577a14610211578063cdd78cfc146101f3578063e4a8f18b146101d5578063f84038b1146101b2578063f851a440146101895763fabf59680361000e57346101845760203660031901126101845760e06101276004356101226000548210611199565b611001565b5060018060a01b038154169060ff6003820154916007810154600b6008830154920154936040519586526020860152604085015281811615156060850152818160081c161515608085015260101c16151560a083015260c0820152f35b600080fd5b34610184576000366003190112610184576001546040516001600160a01b039091168152602090f35b3461018457600036600319011261018457602060405167016345785d8a00008152f35b34610184576000366003190112610184576020600054604051908152f35b34610184576000366003190112610184576020600254604051908152f35b346101845760403660031901126101845761022a610f66565b600435600052600460205260406000209060018060a01b03166000526020526020604060002054604051908152f35b6020366003190112610184576100196004356102786000548210611199565b6111d1565b3461018457604036600319011261018457600435610299610f66565b906102a76000548210611199565b600052600660205260406000209060018060a01b0316600052602052602060ff604060002054166040519015158152f35b34610184576020366003190112610184576004356102f96000548210611199565b61030281611001565b5090600b820154421180610424575b156103e85760008181526004602090815260408083203384529091529020549182156103ab57600082815260046020908152604080832033845290915281205560070180546103619084906116ea565b905561037d600080808086335af16103776116f7565b50611727565b6040519182527f7a482fdeb6bc9a1376f597068a214a7a39472bb2eff1b8cad21ba04f49ddca1b60203393a3005b60405162461bcd60e51b8152602060048201526015602482015274139bc818dbdb9d1c9a589d5d1a5bdb88199bdd5b99605a1b6044820152606490fd5b60405162461bcd60e51b8152602060048201526014602482015273526566756e64206e6f7420617661696c61626c6560601b6044820152606490fd5b5060ff600883015460081c1615610311565b34610184576000366003190112610184576020604051674563918244f400008152f35b34610184576040366003190112610184576024356004356000526003602052604060002080548210156101845760609161049291611170565b5060018060a01b0381541690600260018201549101549060405192835260208301526040820152f35b3461018457600036600319011261018457602047604051908152f35b34610184576040366003190112610184576004356104f3610f66565b906105016000548210611199565b600052600460205260406000209060018060a01b03166000526020526020604060002054604051908152f35b34610184576040366003190112610184576004356024358015158103610184576001546001600160a01b03163303610588576008610575610019936101226000548210611199565b50019060ff801983541691151516179055565b60405162461bcd60e51b815260206004820152600a60248201526927b7363c9030b236b4b760b11b6044820152606490fd5b34610184576020366003190112610184576004356105db6000548210611199565b60005260056020526020604060002054604051908152f35b34610184576020366003190112610184576004356000548110156101845761061a90611001565b5080546001600160a01b03166106326001830161108b565b9161063f6002820161108b565b6003820154916106516004820161108b565b9261065e6005830161108b565b93600683015494600784015490600885015492600986015494600a87015496600b0154976040519b8c9b8c5260208c016101c090526101c08c016106a19161112f565b8b810360408d01526106b29161112f565b9060608b015289810360808b01526106c99161112f565b88810360a08a01526106da9161112f565b9560c088015260e087015260ff811615156101008701528060081c60ff16151561012087015260101c60ff1615156101408601526101608501526101808401526101a08301520390f35b346101845760e0366003190112610184576004356001600160a01b03811681036101845760243567ffffffffffffffff811161018457610768903690600401610fba565b9060443567ffffffffffffffff811161018457610789903690600401610fba565b9060843567ffffffffffffffff8111610184576107aa903690600401610fba565b9160a43567ffffffffffffffff8111610184576107cb903690600401610fba565b60c43591906001600160a01b03841615610f3157674563918244f4000060643510610eec578215610eb057600054946201518084028481046201518003610e9a57610816904261118c565b93604051936101c0850185811067ffffffffffffffff821117610c255760405260018060a01b0387168552602085019589875260408601918252606086019260643584526080870194855260a0870195865260c0870152600060e08701526001610100870152600061012087015260006101408701524261016087015260006101808701526101a0860152600160401b881015610c2557600188016000556108bd88611001565b969096610e8457855187546001600160a01b0319166001600160a01b0391909116178755518051600188019167ffffffffffffffff8211610c255781906109048454611051565b601f8111610e31575b50602090601f8311600114610dcc57600092610dc1575b50508160011b916000199060031b1c19161790555b518051600287019167ffffffffffffffff8211610c2557819061095c8454611051565b601f8111610d6e575b50602090601f8311600114610d0957600092610cfe575b50508160011b916000199060031b1c19161790555b516003850155518051600485019167ffffffffffffffff8211610c255781906109ba8454611051565b601f8111610cab575b50602090601f8311600114610c4657600092610c3b575b50508160011b916000199060031b1c19161790555b5180519067ffffffffffffffff8211610c2557610a0f6005850154611051565b601f8111610bda575b5091859391602097938890601f8311600114610b3d577f51d08cb6cfa640a387210fb69df925dfb70169ae7373f8ecd40b977b0c800d9a959383610b149694600b946101a094600092610b32575b50508160011b916000199060031b1c19161760058501555b60c0810151600685015560e0810151600785015560088401610ab36101008301511515829060ff801983541691151516179055565b610120820151815461014084015162ffff001990911691151560081b61ff00169190911790151560101b62ff0000161790556101608101516009850155610180810151600a850155015191015560408051818152928392909183019061112f565b606435828901526001600160a01b03909516940390a3604051908152f35b015190508d80610a66565b9060058501600052806000209160005b601f1985168110610bc0575093600184600b946101a0947f51d08cb6cfa640a387210fb69df925dfb70169ae7373f8ecd40b977b0c800d9a9a98610b149a98601f19811610610ba7575b505050811b016005850155610a7e565b015160001960f88460031b161c191690558d8080610b97565b8183015184558a9850600190930192918b01918b01610b4d565b600585016000526020600020601f840160051c81019160208510610c1b575b601f0160051c01905b818110610c0f5750610a18565b60008155600101610c02565b9091508190610bf9565b634e487b7160e01b600052604160045260246000fd5b0151905089806109da565b60008581528281209350601f198516905b818110610c935750908460019594939210610c7a575b505050811b0190556109ef565b015160001960f88460031b161c19169055898080610c6d565b92936020600181928786015181550195019301610c57565b909150836000526020600020601f840160051c81019160208510610cf4575b90601f859493920160051c01905b818110610ce557506109c3565b60008155849350600101610cd8565b9091508190610cca565b015190508b8061097c565b60008581528281209350601f198516905b818110610d565750908460019594939210610d3d575b505050811b019055610991565b015160001960f88460031b161c191690558b8080610d30565b92936020600181928786015181550195019301610d1a565b909150836000526020600020601f840160051c81019160208510610db7575b90601f859493920160051c01905b818110610da85750610965565b60008155849350600101610d9b565b9091508190610d8d565b015190508c80610924565b60008581528281209350601f198516905b818110610e195750908460019594939210610e00575b505050811b019055610939565b015160001960f88460031b161c191690558c8080610df3565b92936020600181928786015181550195019301610ddd565b909150836000526020600020601f840160051c81019160208510610e7a575b90601f859493920160051c01905b818110610e6b575061090d565b60008155849350600101610e5e565b9091508190610e50565b634e487b7160e01b600052600060045260246000fd5b634e487b7160e01b600052601160045260246000fd5b60405162461bcd60e51b8152602060048201526014602482015273054696d656c696e65206d757374206265203e20360641b6044820152606490fd5b60405162461bcd60e51b815260206004820152601d60248201527f476f616c206d757374206265206174206c656173742035204d415449430000006044820152606490fd5b60405162461bcd60e51b815260206004820152600d60248201526c24b73b30b634b21037bbb732b960991b6044820152606490fd5b602435906001600160a01b038216820361018457565b90601f8019910116810190811067ffffffffffffffff821117610c2557604052565b67ffffffffffffffff8111610c2557601f01601f191660200190565b81601f8201121561018457803590610fd182610f9e565b92610fdf6040519485610f7c565b8284526020838301011161018457816000926020809301838601378301015290565b60005481101561103b576000808052600c919091027f290decd9548b62a8d60345a988386fc84ba6bc95484008f6362f93160ef3e5630191565b634e487b7160e01b600052603260045260246000fd5b90600182811c92168015611081575b602083101461106b57565b634e487b7160e01b600052602260045260246000fd5b91607f1691611060565b906040519182600082549261109f84611051565b808452936001811690811561110d57506001146110c6575b506110c492500383610f7c565b565b90506000929192526020600020906000915b8183106110f15750509060206110c492820101386110b7565b60209193508060019154838589010152019101909184926110d8565b9050602092506110c494915060ff191682840152151560051b820101386110b7565b919082519283825260005b84811061115b575050826000602080949584010152601f8019910116010190565b8060208092840101518282860101520161113a565b805482101561103b576000526003602060002091020190600090565b91908201809211610e9a57565b156111a057565b60405162461bcd60e51b8152602060048201526009602482015268139bdd08199bdd5b9960ba1b6044820152606490fd5b60ff60086111de83611001565b50015416156116b8576111f081611001565b5067016345785d8a00003410611669576008810160ff815460081c1661162457600b82015442116115ed576003820180546007840190611232825480926116ea565b60009134918083116115d2575b508161124a9161118c565b835586600052600360205260406000206040516060810181811067ffffffffffffffff821117610c2557604052338152602081019183835260408201904282528054600160401b811015610c25576112a791600182018155611170565b939093610e8457915183546001600160a01b0319166001600160a01b039190911617835590516001830155516002919091015560008781526004602090815260408083203384529091529020805461130090839061118c565b9055600087815260066020908152604080832033845290915290205460ff1615611564575b82546040519182526020820152867f2c26a9d48bfcf6dc8a28b936f0aa3b166a0119134df865f480007cc6f1a9b19760403393a38061154a575b50549054111561136e57505050565b61010061ffff19825416179055600a42910155807fcd1dbe2ce745820f60f93df9d589ab9aca1c122559087027c76d1eb59ced615b60408051338152426020820152a26113ba81611001565b509060088201805460ff8160101c1661151257620100009062ff00001916179055600782015491600254808402908482041484151715610e9a576064611402910480946116ea565b9060008080808560018060a01b038654165af161141d6116f7565b50156114cd5783611468575b546040805192835260208301949094526001600160a01b0316927f93e901cc5aea20ea9655887d9290a3215a5b3999c024812f4e4b749f7534349c91a3565b60008080808760018060a01b03600154165af16114836116f7565b506114295760405162461bcd60e51b815260206004820152601860248201527f5472616e7366657220746f2061646d696e206661696c656400000000000000006044820152606490fd5b60405162461bcd60e51b815260206004820152601960248201527f5472616e7366657220746f206661726d6572206661696c6564000000000000006044820152606490fd5b60405162461bcd60e51b815260206004820152601060248201526f105b1c9958591e481c995b19585cd95960821b6044820152606490fd5b600080808061155e94335af16103776116f7565b3861135f565b8660005260056020526040600020805490600160401b821015610c25576001820180825582101561103b57600090815260208082209290920180546001600160a01b03191633908117909155898252600683526040808320918352925220805460ff19166001179055611325565b909250905061124a816115e581346116ea565b93915061123f565b60405162461bcd60e51b815260206004820152600f60248201526e111958591b1a5b99481c185cdcd959608a1b6044820152606490fd5b60405162461bcd60e51b815260206004820152601960248201527f50726f6a65637420616c726561647920636f6d706c65746564000000000000006044820152606490fd5b60405162461bcd60e51b815260206004820152602160248201527f4d696e696d756d20636f6e747269627574696f6e20697320302e31204d4154496044820152604360f81b6064820152608490fd5b60405162461bcd60e51b815260206004820152600a6024820152694e6f742061637469766560b01b6044820152606490fd5b91908203918211610e9a57565b3d15611722573d9061170882610f9e565b916117166040519384610f7c565b82523d6000602084013e565b606090565b1561172e57565b60405162461bcd60e51b815260206004820152600d60248201526c1499599d5b990819985a5b1959609a1b6044820152606490fdfea2646970667358221220a711937f4a8db243033a7626dabd32f9f73272ca92b5d901ed3de04767bf79eb64736f6c634300081e0033","opcodes":"PUSH1 0x80 DUP1 PUSH1 0x40 MSTORE CALLVALUE PUSH1 0x2B JUMPI PUSH1 0x2 DUP1 SSTORE PUSH1 0x1 DUP1 SLOAD PUSH1 0x1 PUSH1 0x1 PUSH1 0xA0 SHL SUB NOT AND CALLER OR SWAP1 SSTORE PUSH2 0x1799 SWAP1 DUP2 PUSH2 0x31 DUP3 CODECOPY RETURN JUMPDEST PUSH1 0x0 DUP1 REVERT INVALID PUSH1 0x80 PUSH1 0x40 MSTORE PUSH1 0x4 CALLDATASIZE LT ISZERO PUSH2 0x1B JUMPI JUMPDEST CALLDATASIZE ISZERO PUSH2 0x19 JUMPI PUSH1 0x0 DUP1 REVERT JUMPDEST STOP JUMPDEST PUSH1 0x0 CALLDATALOAD PUSH1 0xE0 SHR DUP1 PUSH4 0xD908735 EQ PUSH2 0x724 JUMPI DUP1 PUSH4 0x107046BD EQ PUSH2 0x5F3 JUMPI DUP1 PUSH4 0x19C5F695 EQ PUSH2 0x5BA JUMPI DUP1 PUSH4 0x2F597DB5 EQ PUSH2 0x52D JUMPI DUP1 PUSH4 0x36D95F56 EQ PUSH2 0x436 JUMPI DUP1 PUSH4 0x40650C91 EQ PUSH2 0x1B2 JUMPI DUP1 PUSH4 0x61C47CC9 EQ PUSH2 0x4D7 JUMPI DUP1 PUSH4 0x6C563ABE EQ PUSH2 0x259 JUMPI DUP1 PUSH4 0x6F9FB98A EQ PUSH2 0x4BB JUMPI DUP1 PUSH4 0x8F9B6B41 EQ PUSH2 0x459 JUMPI DUP1 PUSH4 0x96D43CC6 EQ PUSH2 0x436 JUMPI DUP1 PUSH4 0xA4B2409E EQ PUSH2 0x2D8 JUMPI DUP1 PUSH4 0xB5B96AE0 EQ PUSH2 0x27D JUMPI DUP1 PUSH4 0xC1CBBCA7 EQ PUSH2 0x259 JUMPI DUP1 PUSH4 0xC45A577A EQ PUSH2 0x211 JUMPI DUP1 PUSH4 0xCDD78CFC EQ PUSH2 0x1F3 JUMPI DUP1 PUSH4 0xE4A8F18B EQ PUSH2 0x1D5 JUMPI DUP1 PUSH4 0xF84038B1 EQ PUSH2 0x1B2 JUMPI DUP1 PUSH4 0xF851A440 EQ PUSH2 0x189 JUMPI PUSH4 0xFABF5968 SUB PUSH2 0xE JUMPI CALLVALUE PUSH2 0x184 JUMPI PUSH1 0x20 CALLDATASIZE PUSH1 0x3 NOT ADD SLT PUSH2 0x184 JUMPI PUSH1 0xE0 PUSH2 0x127 PUSH1 0x4 CALLDATALOAD PUSH2 0x122 PUSH1 0x0 SLOAD DUP3 LT PUSH2 0x1199 JUMP JUMPDEST PUSH2 0x1001 JUMP JUMPDEST POP PUSH1 0x1 DUP1 PUSH1 0xA0 SHL SUB DUP2 SLOAD AND SWAP1 PUSH1 0xFF PUSH1 0x3 DUP3 ADD SLOAD SWAP2 PUSH1 0x7 DUP2 ADD SLOAD PUSH1 0xB PUSH1 0x8 DUP4 ADD SLOAD SWAP3 ADD SLOAD SWAP4 PUSH1 0x40 MLOAD SWAP6 DUP7 MSTORE PUSH1 0x20 DUP7 ADD MSTORE PUSH1 0x40 DUP6 ADD MSTORE DUP2 DUP2 AND ISZERO ISZERO PUSH1 0x60 DUP6 ADD MSTORE DUP2 DUP2 PUSH1 0x8 SHR AND ISZERO ISZERO PUSH1 0x80 DUP6 ADD MSTORE PUSH1 0x10 SHR AND ISZERO ISZERO PUSH1 0xA0 DUP4 ADD MSTORE PUSH1 0xC0 DUP3 ADD MSTORE RETURN JUMPDEST PUSH1 0x0 DUP1 REVERT JUMPDEST CALLVALUE PUSH2 0x184 JUMPI PUSH1 0x0 CALLDATASIZE PUSH1 0x3 NOT ADD SLT PUSH2 0x184 JUMPI PUSH1 0x1 SLOAD PUSH1 0x40 MLOAD PUSH1 0x1 PUSH1 0x1 PUSH1 0xA0 SHL SUB SWAP1 SWAP2 AND DUP2 MSTORE PUSH1 0x20 SWAP1 RETURN JUMPDEST CALLVALUE PUSH2 0x184 JUMPI PUSH1 0x0 CALLDATASIZE PUSH1 0x3 NOT ADD SLT PUSH2 0x184 JUMPI PUSH1 0x20 PUSH1 0x40 MLOAD PUSH8 0x16345785D8A0000 DUP2 MSTORE RETURN JUMPDEST CALLVALUE PUSH2 0x184 JUMPI PUSH1 0x0 CALLDATASIZE PUSH1 0x3 NOT ADD SLT PUSH2 0x184 JUMPI PUSH1 0x20 PUSH1 0x0 SLOAD PUSH1 0x40 MLOAD SWAP1 DUP2 MSTORE RETURN JUMPDEST CALLVALUE PUSH2 0x184 JUMPI PUSH1 0x0 CALLDATASIZE PUSH1 0x3 NOT ADD SLT PUSH2 0x184 JUMPI PUSH1 0x20 PUSH1 0x2 SLOAD PUSH1 0x40 MLOAD SWAP1 DUP2 MSTORE RETURN JUMPDEST CALLVALUE PUSH2 0x184 JUMPI PUSH1 0x40 CALLDATASIZE PUSH1 0x3 NOT ADD SLT PUSH2 0x184 JUMPI PUSH2 0x22A PUSH2 0xF66 JUMP JUMPDEST PUSH1 0x4 CALLDATALOAD PUSH1 0x0 MSTORE PUSH1 0x4 PUSH1 0x20 MSTORE PUSH1 0x40 PUSH1 0x0 KECCAK256 SWAP1 PUSH1 0x1 DUP1 PUSH1 0xA0 SHL SUB AND PUSH1 0x0 MSTORE PUSH1 0x20 MSTORE PUSH1 0x20 PUSH1 0x40 PUSH1 0x0 KECCAK256 SLOAD PUSH1 0x40 MLOAD SWAP1 DUP2 MSTORE RETURN JUMPDEST PUSH1 0x20 CALLDATASIZE PUSH1 0x3 NOT ADD SLT PUSH2 0x184 JUMPI PUSH2 0x19 PUSH1 0x4 CALLDATALOAD PUSH2 0x278 PUSH1 0x0 SLOAD DUP3 LT PUSH2 0x1199 JUMP JUMPDEST PUSH2 0x11D1 JUMP JUMPDEST CALLVALUE PUSH2 0x184 JUMPI PUSH1 0x40 CALLDATASIZE PUSH1 0x3 NOT ADD SLT PUSH2 0x184 JUMPI PUSH1 0x4 CALLDATALOAD PUSH2 0x299 PUSH2 0xF66 JUMP JUMPDEST SWAP1 PUSH2 0x2A7 PUSH1 0x0 SLOAD DUP3 LT PUSH2 0x1199 JUMP JUMPDEST PUSH1 0x0 MSTORE PUSH1 0x6 PUSH1 0x20 MSTORE PUSH1 0x40 PUSH1 0x0 KECCAK256 SWAP1 PUSH1 0x1 DUP1 PUSH1 0xA0 SHL SUB AND PUSH1 0x0 MSTORE PUSH1 0x20 MSTORE PUSH1 0x20 PUSH1 0xFF PUSH1 0x40 PUSH1 0x0 KECCAK256 SLOAD AND PUSH1 0x40 MLOAD SWAP1 ISZERO ISZERO DUP2 MSTORE RETURN JUMPDEST CALLVALUE PUSH2 0x184 JUMPI PUSH1 0x20 CALLDATASIZE PUSH1 0x3 NOT ADD SLT PUSH2 0x184 JUMPI PUSH1 0x4 CALLDATALOAD PUSH2 0x2F9 PUSH1 0x0 SLOAD DUP3 LT PUSH2 0x1199 JUMP JUMPDEST PUSH2 0x302 DUP2 PUSH2 0x1001 JUMP JUMPDEST POP SWAP1 PUSH1 0xB DUP3 ADD SLOAD TIMESTAMP GT DUP1 PUSH2 0x424 JUMPI JUMPDEST ISZERO PUSH2 0x3E8 JUMPI PUSH1 0x0 DUP2 DUP2 MSTORE PUSH1 0x4 PUSH1 0x20 SWAP1 DUP2 MSTORE PUSH1 0x40 DUP1 DUP4 KECCAK256 CALLER DUP5 MSTORE SWAP1 SWAP2 MSTORE SWAP1 KECCAK256 SLOAD SWAP2 DUP3 ISZERO PUSH2 0x3AB JUMPI PUSH1 0x0 DUP3 DUP2 MSTORE PUSH1 0x4 PUSH1 0x20 SWAP1 DUP2 MSTORE PUSH1 0x40 DUP1 DUP4 KECCAK256 CALLER DUP5 MSTORE SWAP1 SWAP2 MSTORE DUP2 KECCAK256 SSTORE PUSH1 0x7 ADD DUP1 SLOAD PUSH2 0x361 SWAP1 DUP5 SWAP1 PUSH2 0x16EA JUMP JUMPDEST SWAP1 SSTORE PUSH2 0x37D PUSH1 0x0 DUP1 DUP1 DUP1 DUP7 CALLER GAS CALL PUSH2 0x377 PUSH2 0x16F7 JUMP JUMPDEST POP PUSH2 0x1727 JUMP JUMPDEST PUSH1 0x40 MLOAD SWAP2 DUP3 MSTORE PUSH32 0x7A482FDEB6BC9A1376F597068A214A7A39472BB2EFF1B8CAD21BA04F49DDCA1B PUSH1 0x20 CALLER SWAP4 LOG3 STOP JUMPDEST PUSH1 0x40 MLOAD PUSH3 0x461BCD PUSH1 0xE5 SHL DUP2 MSTORE PUSH1 0x20 PUSH1 0x4 DUP3 ADD MSTORE PUSH1 0x15 PUSH1 0x24 DUP3 ADD MSTORE PUSH21 0x139BC818DBDB9D1C9A589D5D1A5BDB88199BDD5B99 PUSH1 0x5A SHL PUSH1 0x44 DUP3 ADD MSTORE PUSH1 0x64 SWAP1 REVERT JUMPDEST PUSH1 0x40 MLOAD PUSH3 0x461BCD PUSH1 0xE5 SHL DUP2 MSTORE PUSH1 0x20 PUSH1 0x4 DUP3 ADD MSTORE PUSH1 0x14 PUSH1 0x24 DUP3 ADD MSTORE PUSH20 0x526566756E64206E6F7420617661696C61626C65 PUSH1 0x60 SHL PUSH1 0x44 DUP3 ADD MSTORE PUSH1 0x64 SWAP1 REVERT JUMPDEST POP PUSH1 0xFF PUSH1 0x8 DUP4 ADD SLOAD PUSH1 0x8 SHR AND ISZERO PUSH2 0x311 JUMP JUMPDEST CALLVALUE PUSH2 0x184 JUMPI PUSH1 0x0 CALLDATASIZE PUSH1 0x3 NOT ADD SLT PUSH2 0x184 JUMPI PUSH1 0x20 PUSH1 0x40 MLOAD PUSH8 0x4563918244F40000 DUP2 MSTORE RETURN JUMPDEST CALLVALUE PUSH2 0x184 JUMPI PUSH1 0x40 CALLDATASIZE PUSH1 0x3 NOT ADD SLT PUSH2 0x184 JUMPI PUSH1 0x24 CALLDATALOAD PUSH1 0x4 CALLDATALOAD PUSH1 0x0 MSTORE PUSH1 0x3 PUSH1 0x20 MSTORE PUSH1 0x40 PUSH1 0x0 KECCAK256 DUP1 SLOAD DUP3 LT ISZERO PUSH2 0x184 JUMPI PUSH1 0x60 SWAP2 PUSH2 0x492 SWAP2 PUSH2 0x1170 JUMP JUMPDEST POP PUSH1 0x1 DUP1 PUSH1 0xA0 SHL SUB DUP2 SLOAD AND SWAP1 PUSH1 0x2 PUSH1 0x1 DUP3 ADD SLOAD SWAP2 ADD SLOAD SWAP1 PUSH1 0x40 MLOAD SWAP3 DUP4 MSTORE PUSH1 0x20 DUP4 ADD MSTORE PUSH1 0x40 DUP3 ADD MSTORE RETURN JUMPDEST CALLVALUE PUSH2 0x184 JUMPI PUSH1 0x0 CALLDATASIZE PUSH1 0x3 NOT ADD SLT PUSH2 0x184 JUMPI PUSH1 0x20 SELFBALANCE PUSH1 0x40 MLOAD SWAP1 DUP2 MSTORE RETURN JUMPDEST CALLVALUE PUSH2 0x184 JUMPI PUSH1 0x40 CALLDATASIZE PUSH1 0x3 NOT ADD SLT PUSH2 0x184 JUMPI PUSH1 0x4 CALLDATALOAD PUSH2 0x4F3 PUSH2 0xF66 JUMP JUMPDEST SWAP1 PUSH2 0x501 PUSH1 0x0 SLOAD DUP3 LT PUSH2 0x1199 JUMP JUMPDEST PUSH1 0x0 MSTORE PUSH1 0x4 PUSH1 0x20 MSTORE PUSH1 0x40 PUSH1 0x0 KECCAK256 SWAP1 PUSH1 0x1 DUP1 PUSH1 0xA0 SHL SUB AND PUSH1 0x0 MSTORE PUSH1 0x20 MSTORE PUSH1 0x20 PUSH1 0x40 PUSH1 0x0 KECCAK256 SLOAD PUSH1 0x40 MLOAD SWAP1 DUP2 MSTORE RETURN JUMPDEST CALLVALUE PUSH2 0x184 JUMPI PUSH1 0x40 CALLDATASIZE PUSH1 0x3 NOT ADD SLT PUSH2 0x184 JUMPI PUSH1 0x4 CALLDATALOAD PUSH1 0x24 CALLDATALOAD DUP1 ISZERO ISZERO DUP2 SUB PUSH2 0x184 JUMPI PUSH1 0x1 SLOAD PUSH1 0x1 PUSH1 0x1 PUSH1 0xA0 SHL SUB AND CALLER SUB PUSH2 0x588 JUMPI PUSH1 0x8 PUSH2 0x575 PUSH2 0x19 SWAP4 PUSH2 0x122 PUSH1 0x0 SLOAD DUP3 LT PUSH2 0x1199 JUMP JUMPDEST POP ADD SWAP1 PUSH1 0xFF DUP1 NOT DUP4 SLOAD AND SWAP2 ISZERO ISZERO AND OR SWAP1 SSTORE JUMP JUMPDEST PUSH1 0x40 MLOAD PUSH3 0x461BCD PUSH1 0xE5 SHL DUP2 MSTORE PUSH1 0x20 PUSH1 0x4 DUP3 ADD MSTORE PUSH1 0xA PUSH1 0x24 DUP3 ADD MSTORE PUSH10 0x27B7363C9030B236B4B7 PUSH1 0xB1 SHL PUSH1 0x44 DUP3 ADD MSTORE PUSH1 0x64 SWAP1 REVERT JUMPDEST CALLVALUE PUSH2 0x184 JUMPI PUSH1 0x20 CALLDATASIZE PUSH1 0x3 NOT ADD SLT PUSH2 0x184 JUMPI PUSH1 0x4 CALLDATALOAD PUSH2 0x5DB PUSH1 0x0 SLOAD DUP3 LT PUSH2 0x1199 JUMP JUMPDEST PUSH1 0x0 MSTORE PUSH1 0x5 PUSH1 0x20 MSTORE PUSH1 0x20 PUSH1 0x40 PUSH1 0x0 KECCAK256 SLOAD PUSH1 0x40 MLOAD SWAP1 DUP2 MSTORE RETURN JUMPDEST CALLVALUE PUSH2 0x184 JUMPI PUSH1 0x20 CALLDATASIZE PUSH1 0x3 NOT ADD SLT PUSH2 0x184 JUMPI PUSH1 0x4 CALLDATALOAD PUSH1 0x0 SLOAD DUP2 LT ISZERO PUSH2 0x184 JUMPI PUSH2 0x61A SWAP1 PUSH2 0x1001 JUMP JUMPDEST POP DUP1 SLOAD PUSH1 0x1 PUSH1 0x1 PUSH1 0xA0 SHL SUB AND PUSH2 0x632 PUSH1 0x1 DUP4 ADD PUSH2 0x108B JUMP JUMPDEST SWAP2 PUSH2 0x63F PUSH1 0x2 DUP3 ADD PUSH2 0x108B JUMP JUMPDEST PUSH1 0x3 DUP3 ADD SLOAD SWAP2 PUSH2 0x651 PUSH1 0x4 DUP3 ADD PUSH2 0x108B JUMP JUMPDEST SWAP3 PUSH2 0x65E PUSH1 0x5 DUP4 ADD PUSH2 0x108B JUMP JUMPDEST SWAP4 PUSH1 0x6 DUP4 ADD SLOAD SWAP5 PUSH1 0x7 DUP5 ADD SLOAD SWAP1 PUSH1 0x8 DUP6 ADD SLOAD SWAP3 PUSH1 0x9 DUP7 ADD SLOAD SWAP5 PUSH1 0xA DUP8 ADD SLOAD SWAP7 PUSH1 0xB ADD SLOAD SWAP8 PUSH1 0x40 MLOAD SWAP12 DUP13 SWAP12 DUP13 MSTORE PUSH1 0x20 DUP13 ADD PUSH2 0x1C0 SWAP1 MSTORE PUSH2 0x1C0 DUP13 ADD PUSH2 0x6A1 SWAP2 PUSH2 0x112F JUMP JUMPDEST DUP12 DUP2 SUB PUSH1 0x40 DUP14 ADD MSTORE PUSH2 0x6B2 SWAP2 PUSH2 0x112F JUMP JUMPDEST SWAP1 PUSH1 0x60 DUP12 ADD MSTORE DUP10 DUP2 SUB PUSH1 0x80 DUP12 ADD MSTORE PUSH2 0x6C9 SWAP2 PUSH2 0x112F JUMP JUMPDEST DUP9 DUP2 SUB PUSH1 0xA0 DUP11 ADD MSTORE PUSH2 0x6DA SWAP2 PUSH2 0x112F JUMP JUMPDEST SWAP6 PUSH1 0xC0 DUP9 ADD MSTORE PUSH1 0xE0 DUP8 ADD MSTORE PUSH1 0xFF DUP2 AND ISZERO ISZERO PUSH2 0x100 DUP8 ADD MSTORE DUP1 PUSH1 0x8 SHR PUSH1 0xFF AND ISZERO ISZERO PUSH2 0x120 DUP8 ADD MSTORE PUSH1 0x10 SHR PUSH1 0xFF AND ISZERO ISZERO PUSH2 0x140 DUP7 ADD MSTORE PUSH2 0x160 DUP6 ADD MSTORE PUSH2 0x180 DUP5 ADD MSTORE PUSH2 0x1A0 DUP4 ADD MSTORE SUB SWAP1 RETURN JUMPDEST CALLVALUE PUSH2 0x184 JUMPI PUSH1 0xE0 CALLDATASIZE PUSH1 0x3 NOT ADD SLT PUSH2 0x184 JUMPI PUSH1 0x4 CALLDATALOAD PUSH1 0x1 PUSH1 0x1 PUSH1 0xA0 SHL SUB DUP2 AND DUP2 SUB PUSH2 0x184 JUMPI PUSH1 0x24 CALLDATALOAD PUSH8 0xFFFFFFFFFFFFFFFF DUP2 GT PUSH2 0x184 JUMPI PUSH2 0x768 SWAP1 CALLDATASIZE SWAP1 PUSH1 0x4 ADD PUSH2 0xFBA JUMP JUMPDEST SWAP1 PUSH1 0x44 CALLDATALOAD PUSH8 0xFFFFFFFFFFFFFFFF DUP2 GT PUSH2 0x184 JUMPI PUSH2 0x789 SWAP1 CALLDATASIZE SWAP1 PUSH1 0x4 ADD PUSH2 0xFBA JUMP JUMPDEST SWAP1 PUSH1 0x84 CALLDATALOAD PUSH8 0xFFFFFFFFFFFFFFFF DUP2 GT PUSH2 0x184 JUMPI PUSH2 0x7AA SWAP1 CALLDATASIZE SWAP1 PUSH1 0x4 ADD PUSH2 0xFBA JUMP JUMPDEST SWAP2 PUSH1 0xA4 CALLDATALOAD PUSH8 0xFFFFFFFFFFFFFFFF DUP2 GT PUSH2 0x184 JUMPI PUSH2 0x7CB SWAP1 CALLDATASIZE SWAP1 PUSH1 0x4 ADD PUSH2 0xFBA JUMP JUMPDEST PUSH1 0xC4 CALLDATALOAD SWAP2 SWAP1 PUSH1 0x1 PUSH1 0x1 PUSH1 0xA0 SHL SUB DUP5 AND ISZERO PUSH2 0xF31 JUMPI PUSH8 0x4563918244F40000 PUSH1 0x64 CALLDATALOAD LT PUSH2 0xEEC JUMPI DUP3 ISZERO PUSH2 0xEB0 JUMPI PUSH1 0x0 SLOAD SWAP5 PUSH3 0x15180 DUP5 MUL DUP5 DUP2 DIV PUSH3 0x15180 SUB PUSH2 0xE9A JUMPI PUSH2 0x816 SWAP1 TIMESTAMP PUSH2 0x118C JUMP JUMPDEST SWAP4 PUSH1 0x40 MLOAD SWAP4 PUSH2 0x1C0 DUP6 ADD DUP6 DUP2 LT PUSH8 0xFFFFFFFFFFFFFFFF DUP3 GT OR PUSH2 0xC25 JUMPI PUSH1 0x40 MSTORE PUSH1 0x1 DUP1 PUSH1 0xA0 SHL SUB DUP8 AND DUP6 MSTORE PUSH1 0x20 DUP6 ADD SWAP6 DUP10 DUP8 MSTORE PUSH1 0x40 DUP7 ADD SWAP2 DUP3 MSTORE PUSH1 0x60 DUP7 ADD SWAP3 PUSH1 0x64 CALLDATALOAD DUP5 MSTORE PUSH1 0x80 DUP8 ADD SWAP5 DUP6 MSTORE PUSH1 0xA0 DUP8 ADD SWAP6 DUP7 MSTORE PUSH1 0xC0 DUP8 ADD MSTORE PUSH1 0x0 PUSH1 0xE0 DUP8 ADD MSTORE PUSH1 0x1 PUSH2 0x100 DUP8 ADD MSTORE PUSH1 0x0 PUSH2 0x120 DUP8 ADD MSTORE PUSH1 0x0 PUSH2 0x140 DUP8 ADD MSTORE TIMESTAMP PUSH2 0x160 DUP8 ADD MSTORE PUSH1 0x0 PUSH2 0x180 DUP8 ADD MSTORE PUSH2 0x1A0 DUP7 ADD MSTORE PUSH1 0x1 PUSH1 0x40 SHL DUP9 LT ISZERO PUSH2 0xC25 JUMPI PUSH1 0x1 DUP9 ADD PUSH1 0x0 SSTORE PUSH2 0x8BD DUP9 PUSH2 0x1001 JUMP JUMPDEST SWAP7 SWAP1 SWAP7 PUSH2 0xE84 JUMPI DUP6 MLOAD DUP8 SLOAD PUSH1 0x1 PUSH1 0x1 PUSH1 0xA0 SHL SUB NOT AND PUSH1 0x1 PUSH1 0x1 PUSH1 0xA0 SHL SUB SWAP2 SWAP1 SWAP2 AND OR DUP8 SSTORE MLOAD DUP1 MLOAD PUSH1 0x1 DUP9 ADD SWAP2 PUSH8 0xFFFFFFFFFFFFFFFF DUP3 GT PUSH2 0xC25 JUMPI DUP2 SWAP1 PUSH2 0x904 DUP5 SLOAD PUSH2 0x1051 JUMP JUMPDEST PUSH1 0x1F DUP2 GT PUSH2 0xE31 JUMPI JUMPDEST POP PUSH1 0x20 SWAP1 PUSH1 0x1F DUP4 GT PUSH1 0x1 EQ PUSH2 0xDCC JUMPI PUSH1 0x0 SWAP3 PUSH2 0xDC1 JUMPI JUMPDEST POP POP DUP2 PUSH1 0x1 SHL SWAP2 PUSH1 0x0 NOT SWAP1 PUSH1 0x3 SHL SHR NOT AND OR SWAP1 SSTORE JUMPDEST MLOAD DUP1 MLOAD PUSH1 0x2 DUP8 ADD SWAP2 PUSH8 0xFFFFFFFFFFFFFFFF DUP3 GT PUSH2 0xC25 JUMPI DUP2 SWAP1 PUSH2 0x95C DUP5 SLOAD PUSH2 0x1051 JUMP JUMPDEST PUSH1 0x1F DUP2 GT PUSH2 0xD6E JUMPI JUMPDEST POP PUSH1 0x20 SWAP1 PUSH1 0x1F DUP4 GT PUSH1 0x1 EQ PUSH2 0xD09 JUMPI PUSH1 0x0 SWAP3 PUSH2 0xCFE JUMPI JUMPDEST POP POP DUP2 PUSH1 0x1 SHL SWAP2 PUSH1 0x0 NOT SWAP1 PUSH1 0x3 SHL SHR NOT AND OR SWAP1 SSTORE JUMPDEST MLOAD PUSH1 0x3 DUP6 ADD SSTORE MLOAD DUP1 MLOAD PUSH1 0x4 DUP6 ADD SWAP2 PUSH8 0xFFFFFFFFFFFFFFFF DUP3 GT PUSH2 0xC25 JUMPI DUP2 SWAP1 PUSH2 0x9BA DUP5 SLOAD PUSH2 0x1051 JUMP JUMPDEST PUSH1 0x1F DUP2 GT PUSH2 0xCAB JUMPI JUMPDEST POP PUSH1 0x20 SWAP1 PUSH1 0x1F DUP4 GT PUSH1 0x1 EQ PUSH2 0xC46 JUMPI PUSH1 0x0 SWAP3 PUSH2 0xC3B JUMPI JUMPDEST POP POP DUP2 PUSH1 0x1 SHL SWAP2 PUSH1 0x0 NOT SWAP1 PUSH1 0x3 SHL SHR NOT AND OR SWAP1 SSTORE JUMPDEST MLOAD DUP1 MLOAD SWAP1 PUSH8 0xFFFFFFFFFFFFFFFF DUP3 GT PUSH2 0xC25 JUMPI PUSH2 0xA0F PUSH1 0x5 DUP6 ADD SLOAD PUSH2 0x1051 JUMP JUMPDEST PUSH1 0x1F DUP2 GT PUSH2 0xBDA JUMPI JUMPDEST POP SWAP2 DUP6 SWAP4 SWAP2 PUSH1 0x20 SWAP8 SWAP4 DUP9 SWAP1 PUSH1 0x1F DUP4 GT PUSH1 0x1 EQ PUSH2 0xB3D JUMPI PUSH32 0x51D08CB6CFA640A387210FB69DF925DFB70169AE7373F8ECD40B977B0C800D9A SWAP6 SWAP4 DUP4 PUSH2 0xB14 SWAP7 SWAP5 PUSH1 0xB SWAP5 PUSH2 0x1A0 SWAP5 PUSH1 0x0 SWAP3 PUSH2 0xB32 JUMPI JUMPDEST POP POP DUP2 PUSH1 0x1 SHL SWAP2 PUSH1 0x0 NOT SWAP1 PUSH1 0x3 SHL SHR NOT AND OR PUSH1 0x5 DUP6 ADD SSTORE JUMPDEST PUSH1 0xC0 DUP2 ADD MLOAD PUSH1 0x6 DUP6 ADD SSTORE PUSH1 0xE0 DUP2 ADD MLOAD PUSH1 0x7 DUP6 ADD SSTORE PUSH1 0x8 DUP5 ADD PUSH2 0xAB3 PUSH2 0x100 DUP4 ADD MLOAD ISZERO ISZERO DUP3 SWAP1 PUSH1 0xFF DUP1 NOT DUP4 SLOAD AND SWAP2 ISZERO ISZERO AND OR SWAP1 SSTORE JUMP JUMPDEST PUSH2 0x120 DUP3 ADD MLOAD DUP2 SLOAD PUSH2 0x140 DUP5 ADD MLOAD PUSH3 0xFFFF00 NOT SWAP1 SWAP2 AND SWAP2 ISZERO ISZERO PUSH1 0x8 SHL PUSH2 0xFF00 AND SWAP2 SWAP1 SWAP2 OR SWAP1 ISZERO ISZERO PUSH1 0x10 SHL PUSH3 0xFF0000 AND OR SWAP1 SSTORE PUSH2 0x160 DUP2 ADD MLOAD PUSH1 0x9 DUP6 ADD SSTORE PUSH2 0x180 DUP2 ADD MLOAD PUSH1 0xA DUP6 ADD SSTORE ADD MLOAD SWAP2 ADD SSTORE PUSH1 0x40 DUP1 MLOAD DUP2 DUP2 MSTORE SWAP3 DUP4 SWAP3 SWAP1 SWAP2 DUP4 ADD SWAP1 PUSH2 0x112F JUMP JUMPDEST PUSH1 0x64 CALLDATALOAD DUP3 DUP10 ADD MSTORE PUSH1 0x1 PUSH1 0x1 PUSH1 0xA0 SHL SUB SWAP1 SWAP6 AND SWAP5 SUB SWAP1 LOG3 PUSH1 0x40 MLOAD SWAP1 DUP2 MSTORE RETURN JUMPDEST ADD MLOAD SWAP1 POP DUP14 DUP1 PUSH2 0xA66 JUMP JUMPDEST SWAP1 PUSH1 0x5 DUP6 ADD PUSH1 0x0 MSTORE DUP1 PUSH1 0x0 KECCAK256 SWAP2 PUSH1 0x0 JUMPDEST PUSH1 0x1F NOT DUP6 AND DUP2 LT PUSH2 0xBC0 JUMPI POP SWAP4 PUSH1 0x1 DUP5 PUSH1 0xB SWAP5 PUSH2 0x1A0 SWAP5 PUSH32 0x51D08CB6CFA640A387210FB69DF925DFB70169AE7373F8ECD40B977B0C800D9A SWAP11 SWAP9 PUSH2 0xB14 SWAP11 SWAP9 PUSH1 0x1F NOT DUP2 AND LT PUSH2 0xBA7 JUMPI JUMPDEST POP POP POP DUP2 SHL ADD PUSH1 0x5 DUP6 ADD SSTORE PUSH2 0xA7E JUMP JUMPDEST ADD MLOAD PUSH1 0x0 NOT PUSH1 0xF8 DUP5 PUSH1 0x3 SHL AND SHR NOT AND SWAP1 SSTORE DUP14 DUP1 DUP1 PUSH2 0xB97 JUMP JUMPDEST DUP2 DUP4 ADD MLOAD DUP5 SSTORE DUP11 SWAP9 POP PUSH1 0x1 SWAP1 SWAP4 ADD SWAP3 SWAP2 DUP12 ADD SWAP2 DUP12 ADD PUSH2 0xB4D JUMP JUMPDEST PUSH1 0x5 DUP6 ADD PUSH1 0x0 MSTORE PUSH1 0x20 PUSH1 0x0 KECCAK256 PUSH1 0x1F DUP5 ADD PUSH1 0x5 SHR DUP2 ADD SWAP2 PUSH1 0x20 DUP6 LT PUSH2 0xC1B JUMPI JUMPDEST PUSH1 0x1F ADD PUSH1 0x5 SHR ADD SWAP1 JUMPDEST DUP2 DUP2 LT PUSH2 0xC0F JUMPI POP PUSH2 0xA18 JUMP JUMPDEST PUSH1 0x0 DUP2 SSTORE PUSH1 0x1 ADD PUSH2 0xC02 JUMP JUMPDEST SWAP1 SWAP2 POP DUP2 SWAP1 PUSH2 0xBF9 JUMP JUMPDEST PUSH4 0x4E487B71 PUSH1 0xE0 SHL PUSH1 0x0 MSTORE PUSH1 0x41 PUSH1 0x4 MSTORE PUSH1 0x24 PUSH1 0x0 REVERT JUMPDEST ADD MLOAD SWAP1 POP DUP10 DUP1 PUSH2 0x9DA JUMP JUMPDEST PUSH1 0x0 DUP6 DUP2 MSTORE DUP3 DUP2 KECCAK256 SWAP4 POP PUSH1 0x1F NOT DUP6 AND SWAP1 JUMPDEST DUP2 DUP2 LT PUSH2 0xC93 JUMPI POP SWAP1 DUP5 PUSH1 0x1 SWAP6 SWAP5 SWAP4 SWAP3 LT PUSH2 0xC7A JUMPI JUMPDEST POP POP POP DUP2 SHL ADD SWAP1 SSTORE PUSH2 0x9EF JUMP JUMPDEST ADD MLOAD PUSH1 0x0 NOT PUSH1 0xF8 DUP5 PUSH1 0x3 SHL AND SHR NOT AND SWAP1 SSTORE DUP10 DUP1 DUP1 PUSH2 0xC6D JUMP JUMPDEST SWAP3 SWAP4 PUSH1 0x20 PUSH1 0x1 DUP2 SWAP3 DUP8 DUP7 ADD MLOAD DUP2 SSTORE ADD SWAP6 ADD SWAP4 ADD PUSH2 0xC57 JUMP JUMPDEST SWAP1 SWAP2 POP DUP4 PUSH1 0x0 MSTORE PUSH1 0x20 PUSH1 0x0 KECCAK256 PUSH1 0x1F DUP5 ADD PUSH1 0x5 SHR DUP2 ADD SWAP2 PUSH1 0x20 DUP6 LT PUSH2 0xCF4 JUMPI JUMPDEST SWAP1 PUSH1 0x1F DUP6 SWAP5 SWAP4 SWAP3 ADD PUSH1 0x5 SHR ADD SWAP1 JUMPDEST DUP2 DUP2 LT PUSH2 0xCE5 JUMPI POP PUSH2 0x9C3 JUMP JUMPDEST PUSH1 0x0 DUP2 SSTORE DUP5 SWAP4 POP PUSH1 0x1 ADD PUSH2 0xCD8 JUMP JUMPDEST SWAP1 SWAP2 POP DUP2 SWAP1 PUSH2 0xCCA JUMP JUMPDEST ADD MLOAD SWAP1 POP DUP12 DUP1 PUSH2 0x97C JUMP JUMPDEST PUSH1 0x0 DUP6 DUP2 MSTORE DUP3 DUP2 KECCAK256 SWAP4 POP PUSH1 0x1F NOT DUP6 AND SWAP1 JUMPDEST DUP2 DUP2 LT PUSH2 0xD56 JUMPI POP SWAP1 DUP5 PUSH1 0x1 SWAP6 SWAP5 SWAP4 SWAP3 LT PUSH2 0xD3D JUMPI JUMPDEST POP POP POP DUP2 SHL ADD SWAP1 SSTORE PUSH2 0x991 JUMP JUMPDEST ADD MLOAD PUSH1 0x0 NOT PUSH1 0xF8 DUP5 PUSH1 0x3 SHL AND SHR NOT AND SWAP1 SSTORE DUP12 DUP1 DUP1 PUSH2 0xD30 JUMP JUMPDEST SWAP3 SWAP4 PUSH1 0x20 PUSH1 0x1 DUP2 SWAP3 DUP8 DUP7 ADD MLOAD DUP2 SSTORE ADD SWAP6 ADD SWAP4 ADD PUSH2 0xD1A JUMP JUMPDEST SWAP1 SWAP2 POP DUP4 PUSH1 0x0 MSTORE PUSH1 0x20 PUSH1 0x0 KECCAK256 PUSH1 0x1F DUP5 ADD PUSH1 0x5 SHR DUP2 ADD SWAP2 PUSH1 0x20 DUP6 LT PUSH2 0xDB7 JUMPI JUMPDEST SWAP1 PUSH1 0x1F DUP6 SWAP5 SWAP4 SWAP3 ADD PUSH1 0x5 SHR ADD SWAP1 JUMPDEST DUP2 DUP2 LT PUSH2 0xDA8 JUMPI POP PUSH2 0x965 JUMP JUMPDEST PUSH1 0x0 DUP2 SSTORE DUP5 SWAP4 POP PUSH1 0x1 ADD PUSH2 0xD9B JUMP JUMPDEST SWAP1 SWAP2 POP DUP2 SWAP1 PUSH2 0xD8D JUMP JUMPDEST ADD MLOAD SWAP1 POP DUP13 DUP1 PUSH2 0x924 JUMP JUMPDEST PUSH1 0x0 DUP6 DUP2 MSTORE DUP3 DUP2 KECCAK256 SWAP4 POP PUSH1 0x1F NOT DUP6 AND SWAP1 JUMPDEST DUP2 DUP2 LT PUSH2 0xE19 JUMPI POP SWAP1 DUP5 PUSH1 0x1 SWAP6 SWAP5 SWAP4 SWAP3 LT PUSH2 0xE00 JUMPI JUMPDEST POP POP POP DUP2 SHL ADD SWAP1 SSTORE PUSH2 0x939 JUMP JUMPDEST ADD MLOAD PUSH1 0x0 NOT PUSH1 0xF8 DUP5 PUSH1 0x3 SHL AND SHR NOT AND SWAP1 SSTORE DUP13 DUP1 DUP1 PUSH2 0xDF3 JUMP JUMPDEST SWAP3 SWAP4 PUSH1 0x20 PUSH1 0x1 DUP2 SWAP3 DUP8 DUP7 ADD MLOAD DUP2 SSTORE ADD SWAP6 ADD SWAP4 ADD PUSH2 0xDDD JUMP JUMPDEST SWAP1 SWAP2 POP DUP4 PUSH1 0x0 MSTORE PUSH1 0x20 PUSH1 0x0 KECCAK256 PUSH1 0x1F DUP5 ADD PUSH1 0x5 SHR DUP2 ADD SWAP2 PUSH1 0x20 DUP6 LT PUSH2 0xE7A JUMPI JUMPDEST SWAP1 PUSH1 0x1F DUP6 SWAP5 SWAP4 SWAP3 ADD PUSH1 0x5 SHR ADD SWAP1 JUMPDEST DUP2 DUP2 LT PUSH2 0xE6B JUMPI POP PUSH2 0x90D JUMP JUMPDEST PUSH1 0x0 DUP2 SSTORE DUP5 SWAP4 POP PUSH1 0x1 ADD PUSH2 0xE5E JUMP JUMPDEST SWAP1 SWAP2 POP DUP2 SWAP1 PUSH2 0xE50 JUMP JUMPDEST PUSH4 0x4E487B71 PUSH1 0xE0 SHL PUSH1 0x0 MSTORE PUSH1 0x0 PUSH1 0x4 MSTORE PUSH1 0x24 PUSH1 0x0 REVERT JUMPDEST PUSH4 0x4E487B71 PUSH1 0xE0 SHL PUSH1 0x0 MSTORE PUSH1 0x11 PUSH1 0x4 MSTORE PUSH1 0x24 PUSH1 0x0 REVERT JUMPDEST PUSH1 0x40 MLOAD PUSH3 0x461BCD PUSH1 0xE5 SHL DUP2 MSTORE PUSH1 0x20 PUSH1 0x4 DUP3 ADD MSTORE PUSH1 0x14 PUSH1 0x24 DUP3 ADD MSTORE PUSH20 0x54696D656C696E65206D757374206265203E203 PUSH1 0x64 SHL PUSH1 0x44 DUP3 ADD MSTORE PUSH1 0x64 SWAP1 REVERT JUMPDEST PUSH1 0x40 MLOAD PUSH3 0x461BCD PUSH1 0xE5 SHL DUP2 MSTORE PUSH1 0x20 PUSH1 0x4 DUP3 ADD MSTORE PUSH1 0x1D PUSH1 0x24 DUP3 ADD MSTORE PUSH32 0x476F616C206D757374206265206174206C656173742035204D41544943000000 PUSH1 0x44 DUP3 ADD MSTORE PUSH1 0x64 SWAP1 REVERT JUMPDEST PUSH1 0x40 MLOAD PUSH3 0x461BCD PUSH1 0xE5 SHL DUP2 MSTORE PUSH1 0x20 PUSH1 0x4 DUP3 ADD MSTORE PUSH1 0xD PUSH1 0x24 DUP3 ADD MSTORE PUSH13 0x24B73B30B634B21037BBB732B9 PUSH1 0x99 SHL PUSH1 0x44 DUP3 ADD MSTORE PUSH1 0x64 SWAP1 REVERT JUMPDEST PUSH1 0x24 CALLDATALOAD SWAP1 PUSH1 0x1 PUSH1 0x1 PUSH1 0xA0 SHL SUB DUP3 AND DUP3 SUB PUSH2 0x184 JUMPI JUMP JUMPDEST SWAP1 PUSH1 0x1F DUP1 NOT SWAP2 ADD AND DUP2 ADD SWAP1 DUP2 LT PUSH8 0xFFFFFFFFFFFFFFFF DUP3 GT OR PUSH2 0xC25 JUMPI PUSH1 0x40 MSTORE JUMP JUMPDEST PUSH8 0xFFFFFFFFFFFFFFFF DUP2 GT PUSH2 0xC25 JUMPI PUSH1 0x1F ADD PUSH1 0x1F NOT AND PUSH1 0x20 ADD SWAP1 JUMP JUMPDEST DUP2 PUSH1 0x1F DUP3 ADD SLT ISZERO PUSH2 0x184 JUMPI DUP1 CALLDATALOAD SWAP1 PUSH2 0xFD1 DUP3 PUSH2 0xF9E JUMP JUMPDEST SWAP3 PUSH2 0xFDF PUSH1 0x40 MLOAD SWAP5 DUP6 PUSH2 0xF7C JUMP JUMPDEST DUP3 DUP5 MSTORE PUSH1 0x20 DUP4 DUP4 ADD ADD GT PUSH2 0x184 JUMPI DUP2 PUSH1 0x0 SWAP3 PUSH1 0x20 DUP1 SWAP4 ADD DUP4 DUP7 ADD CALLDATACOPY DUP4 ADD ADD MSTORE SWAP1 JUMP JUMPDEST PUSH1 0x0 SLOAD DUP2 LT ISZERO PUSH2 0x103B JUMPI PUSH1 0x0 DUP1 DUP1 MSTORE PUSH1 0xC SWAP2 SWAP1 SWAP2 MUL PUSH32 0x290DECD9548B62A8D60345A988386FC84BA6BC95484008F6362F93160EF3E563 ADD SWAP2 JUMP JUMPDEST PUSH4 0x4E487B71 PUSH1 0xE0 SHL PUSH1 0x0 MSTORE PUSH1 0x32 PUSH1 0x4 MSTORE PUSH1 0x24 PUSH1 0x0 REVERT JUMPDEST SWAP1 PUSH1 0x1 DUP3 DUP2 SHR SWAP3 AND DUP1 ISZERO PUSH2 0x1081 JUMPI JUMPDEST PUSH1 0x20 DUP4 LT EQ PUSH2 0x106B JUMPI JUMP JUMPDEST PUSH4 0x4E487B71 PUSH1 0xE0 SHL PUSH1 0x0 MSTORE PUSH1 0x22 PUSH1 0x4 MSTORE PUSH1 0x24 PUSH1 0x0 REVERT JUMPDEST SWAP2 PUSH1 0x7F AND SWAP2 PUSH2 0x1060 JUMP JUMPDEST SWAP1 PUSH1 0x40 MLOAD SWAP2 DUP3 PUSH1 0x0 DUP3 SLOAD SWAP3 PUSH2 0x109F DUP5 PUSH2 0x1051 JUMP JUMPDEST DUP1 DUP5 MSTORE SWAP4 PUSH1 0x1 DUP2 AND SWAP1 DUP2 ISZERO PUSH2 0x110D JUMPI POP PUSH1 0x1 EQ PUSH2 0x10C6 JUMPI JUMPDEST POP PUSH2 0x10C4 SWAP3 POP SUB DUP4 PUSH2 0xF7C JUMP JUMPDEST JUMP JUMPDEST SWAP1 POP PUSH1 0x0 SWAP3 SWAP2 SWAP3 MSTORE PUSH1 0x20 PUSH1 0x0 KECCAK256 SWAP1 PUSH1 0x0 SWAP2 JUMPDEST DUP2 DUP4 LT PUSH2 0x10F1 JUMPI POP POP SWAP1 PUSH1 0x20 PUSH2 0x10C4 SWAP3 DUP3 ADD ADD CODESIZE PUSH2 0x10B7 JUMP JUMPDEST PUSH1 0x20 SWAP2 SWAP4 POP DUP1 PUSH1 0x1 SWAP2 SLOAD DUP4 DUP6 DUP10 ADD ADD MSTORE ADD SWAP2 ADD SWAP1 SWAP2 DUP5 SWAP3 PUSH2 0x10D8 JUMP JUMPDEST SWAP1 POP PUSH1 0x20 SWAP3 POP PUSH2 0x10C4 SWAP5 SWAP2 POP PUSH1 0xFF NOT AND DUP3 DUP5 ADD MSTORE ISZERO ISZERO PUSH1 0x5 SHL DUP3 ADD ADD CODESIZE PUSH2 0x10B7 JUMP JUMPDEST SWAP2 SWAP1 DUP3 MLOAD SWAP3 DUP4 DUP3 MSTORE PUSH1 0x0 JUMPDEST DUP5 DUP2 LT PUSH2 0x115B JUMPI POP POP DUP3 PUSH1 0x0 PUSH1 0x20 DUP1 SWAP5 SWAP6 DUP5 ADD ADD MSTORE PUSH1 0x1F DUP1 NOT SWAP2 ADD AND ADD ADD SWAP1 JUMP JUMPDEST DUP1 PUSH1 0x20 DUP1 SWAP3 DUP5 ADD ADD MLOAD DUP3 DUP3 DUP7 ADD ADD MSTORE ADD PUSH2 0x113A JUMP JUMPDEST DUP1 SLOAD DUP3 LT ISZERO PUSH2 0x103B JUMPI PUSH1 0x0 MSTORE PUSH1 0x3 PUSH1 0x20 PUSH1 0x0 KECCAK256 SWAP2 MUL ADD SWAP1 PUSH1 0x0 SWAP1 JUMP JUMPDEST SWAP2 SWAP1 DUP3 ADD DUP1 SWAP3 GT PUSH2 0xE9A JUMPI JUMP JUMPDEST ISZERO PUSH2 0x11A0 JUMPI JUMP JUMPDEST PUSH1 0x40 MLOAD PUSH3 0x461BCD PUSH1 0xE5 SHL DUP2 MSTORE PUSH1 0x20 PUSH1 0x4 DUP3 ADD MSTORE PUSH1 0x9 PUSH1 0x24 DUP3 ADD MSTORE PUSH9 0x139BDD08199BDD5B99 PUSH1 0xBA SHL PUSH1 0x44 DUP3 ADD MSTORE PUSH1 0x64 SWAP1 REVERT JUMPDEST PUSH1 0xFF PUSH1 0x8 PUSH2 0x11DE DUP4 PUSH2 0x1001 JUMP JUMPDEST POP ADD SLOAD AND ISZERO PUSH2 0x16B8 JUMPI PUSH2 0x11F0 DUP2 PUSH2 0x1001 JUMP JUMPDEST POP PUSH8 0x16345785D8A0000 CALLVALUE LT PUSH2 0x1669 JUMPI PUSH1 0x8 DUP2 ADD PUSH1 0xFF DUP2 SLOAD PUSH1 0x8 SHR AND PUSH2 0x1624 JUMPI PUSH1 0xB DUP3 ADD SLOAD TIMESTAMP GT PUSH2 0x15ED JUMPI PUSH1 0x3 DUP3 ADD DUP1 SLOAD PUSH1 0x7 DUP5 ADD SWAP1 PUSH2 0x1232 DUP3 SLOAD DUP1 SWAP3 PUSH2 0x16EA JUMP JUMPDEST PUSH1 0x0 SWAP2 CALLVALUE SWAP2 DUP1 DUP4 GT PUSH2 0x15D2 JUMPI JUMPDEST POP DUP2 PUSH2 0x124A SWAP2 PUSH2 0x118C JUMP JUMPDEST DUP4 SSTORE DUP7 PUSH1 0x0 MSTORE PUSH1 0x3 PUSH1 0x20 MSTORE PUSH1 0x40 PUSH1 0x0 KECCAK256 PUSH1 0x40 MLOAD PUSH1 0x60 DUP2 ADD DUP2 DUP2 LT PUSH8 0xFFFFFFFFFFFFFFFF DUP3 GT OR PUSH2 0xC25 JUMPI PUSH1 0x40 MSTORE CALLER DUP2 MSTORE PUSH1 0x20 DUP2 ADD SWAP2 DUP4 DUP4 MSTORE PUSH1 0x40 DUP3 ADD SWAP1 TIMESTAMP DUP3 MSTORE DUP1 SLOAD PUSH1 0x1 PUSH1 0x40 SHL DUP2 LT ISZERO PUSH2 0xC25 JUMPI PUSH2 0x12A7 SWAP2 PUSH1 0x1 DUP3 ADD DUP2 SSTORE PUSH2 0x1170 JUMP JUMPDEST SWAP4 SWAP1 SWAP4 PUSH2 0xE84 JUMPI SWAP2 MLOAD DUP4 SLOAD PUSH1 0x1 PUSH1 0x1 PUSH1 0xA0 SHL SUB NOT AND PUSH1 0x1 PUSH1 0x1 PUSH1 0xA0 SHL SUB SWAP2 SWAP1 SWAP2 AND OR DUP4 SSTORE SWAP1 MLOAD PUSH1 0x1 DUP4 ADD SSTORE MLOAD PUSH1 0x2 SWAP2 SWAP1 SWAP2 ADD SSTORE PUSH1 0x0 DUP8 DUP2 MSTORE PUSH1 0x4 PUSH1 0x20 SWAP1 DUP2 MSTORE PUSH1 0x40 DUP1 DUP4 KECCAK256 CALLER DUP5 MSTORE SWAP1 SWAP2 MSTORE SWAP1 KECCAK256 DUP1 SLOAD PUSH2 0x1300 SWAP1 DUP4 SWAP1 PUSH2 0x118C JUMP JUMPDEST SWAP1 SSTORE PUSH1 0x0 DUP8 DUP2 MSTORE PUSH1 0x6 PUSH1 0x20 SWAP1 DUP2 MSTORE PUSH1 0x40 DUP1 DUP4 KECCAK256 CALLER DUP5 MSTORE SWAP1 SWAP2 MSTORE SWAP1 KECCAK256 SLOAD PUSH1 0xFF AND ISZERO PUSH2 0x1564 JUMPI JUMPDEST DUP3 SLOAD PUSH1 0x40 MLOAD SWAP2 DUP3 MSTORE PUSH1 0x20 DUP3 ADD MSTORE DUP7 PUSH32 0x2C26A9D48BFCF6DC8A28B936F0AA3B166A0119134DF865F480007CC6F1A9B197 PUSH1 0x40 CALLER SWAP4 LOG3 DUP1 PUSH2 0x154A JUMPI JUMPDEST POP SLOAD SWAP1 SLOAD GT ISZERO PUSH2 0x136E JUMPI POP POP POP JUMP JUMPDEST PUSH2 0x100 PUSH2 0xFFFF NOT DUP3 SLOAD AND OR SWAP1 SSTORE PUSH1 0xA TIMESTAMP SWAP2 ADD SSTORE DUP1 PUSH32 0xCD1DBE2CE745820F60F93DF9D589AB9ACA1C122559087027C76D1EB59CED615B PUSH1 0x40 DUP1 MLOAD CALLER DUP2 MSTORE TIMESTAMP PUSH1 0x20 DUP3 ADD MSTORE LOG2 PUSH2 0x13BA DUP2 PUSH2 0x1001 JUMP JUMPDEST POP SWAP1 PUSH1 0x8 DUP3 ADD DUP1 SLOAD PUSH1 0xFF DUP2 PUSH1 0x10 SHR AND PUSH2 0x1512 JUMPI PUSH3 0x10000 SWAP1 PUSH3 0xFF0000 NOT AND OR SWAP1 SSTORE PUSH1 0x7 DUP3 ADD SLOAD SWAP2 PUSH1 0x2 SLOAD DUP1 DUP5 MUL SWAP1 DUP5 DUP3 DIV EQ DUP5 ISZERO OR ISZERO PUSH2 0xE9A JUMPI PUSH1 0x64 PUSH2 0x1402 SWAP2 DIV DUP1 SWAP5 PUSH2 0x16EA JUMP JUMPDEST SWAP1 PUSH1 0x0 DUP1 DUP1 DUP1 DUP6 PUSH1 0x1 DUP1 PUSH1 0xA0 SHL SUB DUP7 SLOAD AND GAS CALL PUSH2 0x141D PUSH2 0x16F7 JUMP JUMPDEST POP ISZERO PUSH2 0x14CD JUMPI DUP4 PUSH2 0x1468 JUMPI JUMPDEST SLOAD PUSH1 0x40 DUP1 MLOAD SWAP3 DUP4 MSTORE PUSH1 0x20 DUP4 ADD SWAP5 SWAP1 SWAP5 MSTORE PUSH1 0x1 PUSH1 0x1 PUSH1 0xA0 SHL SUB AND SWAP3 PUSH32 0x93E901CC5AEA20EA9655887D9290A3215A5B3999C024812F4E4B749F7534349C SWAP2 LOG3 JUMP JUMPDEST PUSH1 0x0 DUP1 DUP1 DUP1 DUP8 PUSH1 0x1 DUP1 PUSH1 0xA0 SHL SUB PUSH1 0x1 SLOAD AND GAS CALL PUSH2 0x1483 PUSH2 0x16F7 JUMP JUMPDEST POP PUSH2 0x1429 JUMPI PUSH1 0x40 MLOAD PUSH3 0x461BCD PUSH1 0xE5 SHL DUP2 MSTORE PUSH1 0x20 PUSH1 0x4 DUP3 ADD MSTORE PUSH1 0x18 PUSH1 0x24 DUP3 ADD MSTORE PUSH32 0x5472616E7366657220746F2061646D696E206661696C65640000000000000000 PUSH1 0x44 DUP3 ADD MSTORE PUSH1 0x64 SWAP1 REVERT JUMPDEST PUSH1 0x40 MLOAD PUSH3 0x461BCD PUSH1 0xE5 SHL DUP2 MSTORE PUSH1 0x20 PUSH1 0x4 DUP3 ADD MSTORE PUSH1 0x19 PUSH1 0x24 DUP3 ADD MSTORE PUSH32 0x5472616E7366657220746F206661726D6572206661696C656400000000000000 PUSH1 0x44 DUP3 ADD MSTORE PUSH1 0x64 SWAP1 REVERT JUMPDEST PUSH1 0x40 MLOAD PUSH3 0x461BCD PUSH1 0xE5 SHL DUP2 MSTORE PUSH1 0x20 PUSH1 0x4 DUP3 ADD MSTORE PUSH1 0x10 PUSH1 0x24 DUP3 ADD MSTORE PUSH16 0x105B1C9958591E481C995B19585CD959 PUSH1 0x82 SHL PUSH1 0x44 DUP3 ADD MSTORE PUSH1 0x64 SWAP1 REVERT JUMPDEST PUSH1 0x0 DUP1 DUP1 DUP1 PUSH2 0x155E SWAP5 CALLER GAS CALL PUSH2 0x377 PUSH2 0x16F7 JUMP JUMPDEST CODESIZE PUSH2 0x135F JUMP JUMPDEST DUP7 PUSH1 0x0 MSTORE PUSH1 0x5 PUSH1 0x20 MSTORE PUSH1 0x40 PUSH1 0x0 KECCAK256 DUP1 SLOAD SWAP1 PUSH1 0x1 PUSH1 0x40 SHL DUP3 LT ISZERO PUSH2 0xC25 JUMPI PUSH1 0x1 DUP3 ADD DUP1 DUP3 SSTORE DUP3 LT ISZERO PUSH2 0x103B JUMPI PUSH1 0x0 SWAP1 DUP2 MSTORE PUSH1 0x20 DUP1 DUP3 KECCAK256 SWAP3 SWAP1 SWAP3 ADD DUP1 SLOAD PUSH1 0x1 PUSH1 0x1 PUSH1 0xA0 SHL SUB NOT AND CALLER SWAP1 DUP2 OR SWAP1 SWAP2 SSTORE DUP10 DUP3 MSTORE PUSH1 0x6 DUP4 MSTORE PUSH1 0x40 DUP1 DUP4 KECCAK256 SWAP2 DUP4 MSTORE SWAP3 MSTORE KECCAK256 DUP1 SLOAD PUSH1 0xFF NOT AND PUSH1 0x1 OR SWAP1 SSTORE PUSH2 0x1325 JUMP JUMPDEST SWAP1 SWAP3 POP SWAP1 POP PUSH2 0x124A DUP2 PUSH2 0x15E5 DUP2 CALLVALUE PUSH2 0x16EA JUMP JUMPDEST SWAP4 SWAP2 POP PUSH2 0x123F JUMP JUMPDEST PUSH1 0x40 MLOAD PUSH3 0x461BCD PUSH1 0xE5 SHL DUP2 MSTORE PUSH1 0x20 PUSH1 0x4 DUP3 ADD MSTORE PUSH1 0xF PUSH1 0x24 DUP3 ADD MSTORE PUSH15 0x111958591B1A5B99481C185CDCD959 PUSH1 0x8A SHL PUSH1 0x44 DUP3 ADD MSTORE PUSH1 0x64 SWAP1 REVERT JUMPDEST PUSH1 0x40 MLOAD PUSH3 0x461BCD PUSH1 0xE5 SHL DUP2 MSTORE PUSH1 0x20 PUSH1 0x4 DUP3 ADD MSTORE PUSH1 0x19 PUSH1 0x24 DUP3 ADD MSTORE PUSH32 0x50726F6A65637420616C726561647920636F6D706C6574656400000000000000 PUSH1 0x44 DUP3 ADD MSTORE PUSH1 0x64 SWAP1 REVERT JUMPDEST PUSH1 0x40 MLOAD PUSH3 0x461BCD PUSH1 0xE5 SHL DUP2 MSTORE PUSH1 0x20 PUSH1 0x4 DUP3 ADD MSTORE PUSH1 0x21 PUSH1 0x24 DUP3 ADD MSTORE PUSH32 0x4D696E696D756D20636F6E747269627574696F6E20697320302E31204D415449 PUSH1 0x44 DUP3 ADD MSTORE PUSH1 0x43 PUSH1 0xF8 SHL PUSH1 0x64 DUP3 ADD MSTORE PUSH1 0x84 SWAP1 REVERT JUMPDEST PUSH1 0x40 MLOAD PUSH3 0x461BCD PUSH1 0xE5 SHL DUP2 MSTORE PUSH1 0x20 PUSH1 0x4 DUP3 ADD MSTORE PUSH1 0xA PUSH1 0x24 DUP3 ADD MSTORE PUSH10 0x4E6F7420616374697665 PUSH1 0xB0 SHL PUSH1 0x44 DUP3 ADD MSTORE PUSH1 0x64 SWAP1 REVERT JUMPDEST SWAP2 SWAP1 DUP3 SUB SWAP2 DUP3 GT PUSH2 0xE9A JUMPI JUMP JUMPDEST RETURNDATASIZE ISZERO PUSH2 0x1722 JUMPI RETURNDATASIZE SWAP1 PUSH2 0x1708 DUP3 PUSH2 0xF9E JUMP JUMPDEST SWAP2 PUSH2 0x1716 PUSH1 0x40 MLOAD SWAP4 DUP5 PUSH2 0xF7C JUMP JUMPDEST DUP3 MSTORE RETURNDATASIZE PUSH1 0x0 PUSH1 0x20 DUP5 ADD RETURNDATACOPY JUMP JUMPDEST PUSH1 0x60 SWAP1 JUMP JUMPDEST ISZERO PUSH2 0x172E JUMPI JUMP JUMPDEST PUSH1 0x40 MLOAD PUSH3 0x461BCD PUSH1 0xE5 SHL DUP2 MSTORE PUSH1 0x20 PUSH1 0x4 DUP3 ADD MSTORE PUSH1 0xD PUSH1 0x24 DUP3 ADD MSTORE PUSH13 0x1499599D5B990819985A5B1959 PUSH1 0x9A SHL PUSH1 0x44 DUP3 ADD MSTORE PUSH1 0x64 SWAP1 REVERT INVALID LOG2 PUSH5 0x6970667358 0x22 SLT KECCAK256 0xA7 GT SWAP4 PUSH32 0x4A8DB243033A7626DABD32F9F73272CA92B5D901ED3DE04767BF79EB64736F6C PUSH4 0x4300081E STOP CALLER "},"methodIdentifiers":{"MIN_CONTRIBUTION()":"40650c91","MIN_FUNDING_GOAL()":"36d95f56","admin()":"f851a440","contribute(uint256)":"c1cbbca7","contributorAmounts(uint256,address)":"c45a577a","createProject(address,string,string,uint256,string,string,uint256)":"0d908735","fundProject(uint256)":"6c563abe","getContractBalance()":"6f9fb98a","getContributorAmount(uint256,address)":"61c47cc9","getContributorCount(uint256)":"19c5f695","getMinimumContribution()":"f84038b1","getMinimumFundingGoal()":"96d43cc6","getProjectInfo(uint256)":"fabf5968","getProjectsCount()":"e4a8f18b","hasContributed(uint256,address)":"b5b96ae0","platformFeePercentage()":"cdd78cfc","projectContributions(uint256,uint256)":"8f9b6b41","projects(uint256)":"107046bd","requestRefund(uint256)":"a4b2409e","setProjectActive(uint256,bool)":"2f597db5"}}}}}